:100000000C948F000C94B9000C94B9000C94B900B6
:100010000C94B9000C94B9000C94B9000C94B9007C
:100020000C94B9000C94B9000C94B9000C94B9006C
:100030000C94B9000C94B9000C94B9000C94B9005C
:100040000C94B9000C94B9000C94E0230C94B90002
:100050000C94BE200C94F4200C94B9000C94B900BC
:100060000C94B9000C94B9000C94261E0C94B900A1
:100070000C94B9000C94B9000C94B9000C94B9001C
:100080000C94B9000C94B9000C94B9007C3C3E5E11
:100090002B3D3F2F5B5D3B2C2A225C0000000002C1
:1000A00003000A0B0000000005040908000000001E
:1000B0000000000000000000000000000102040831
:1000C0001020408001020408102040800102040832
:1000D0001020408001020408102040800202020229
:1000E00002020202040404040404040403030303DC
:1000F00003030303010101010101010100002200CA
:10010000250028002B0000002100240027002A00E1
:10011000CB00C407B70BC50EB81B2821E300112480
:100120001FBECFEFD0E4DEBFCDBF11E0A0E0B1E055
:10013000EEEEF0E500E00BBF02C007900D92A63E88
:10014000B107D9F725E0A6EEB1E001C01D92A33CAE
:10015000B207E1F710E0CEE8D0E004C02197FE013D
:100160000E949225C838D107C9F70E94D1230C9468
:100170006A280C940000DC01ED91FC910190F08163
:10018000E02D0994982F92959F708F702AE0929F8E
:10019000800D112408956DE071E08FE092E00E94DF
:1001A0003B2264E171E089E092E00E943B2268E139
:1001B00071E083E092E00E943B226AE471E08DEFFF
:1001C00091E00C943B228DEF91E00E94CC2183E0E2
:1001D00092E00E94CC2189E092E00E94CC218FE045
:1001E00092E00C94CC21CF93DF9361E570E08DE633
:1001F00094E00E94371B70E060E08DE694E00E947E
:10020000BB008DE694E00E94B51B46E050E061E53E
:1002100070E08DE694E00E94B21B8DE694E00E94AF
:10022000AE1A0E94C2008093E8018DE694E00E941D
:10023000AE1A8F770E94C200D82F8DE694E00E94FC
:10024000AE1A8F770E94C200C82F8DE694E00E94FC
:10025000AE1A0E94C20090E0B0E0A0E08093E901F5
:100260009093EA01A093EB01B093EC018DE694E04A
:100270000E94AE1A0E94C20024E6829FC00111248F
:10028000092E000CAA0BBB0B4091E9015091EA0129
:100290006091EB017091EC01840F951FA61FB71FB1
:1002A0008093E9019093EA01A093EB01B093EC01F4
:1002B0008DE694E00E94AE1A0E94C20040E157E22F
:1002C000849F9001859F300D1124032E000C440B58
:1002D000550B8091E9019091EA01A091EB01B09159
:1002E000EC01280F391F4A1F5B1FA0E1BEE00E94EE
:1002F0009B25AB01BC012CE3C29FC0011124092E38
:10030000000CAA0BBB0B8D0F911DA11DB11D840FFD
:10031000951FA61FB71F8093E9019093EA01A09350
:10032000EB01B093EC01DF91CF9108958F929F92F2
:10033000AF92BF92CF92DF92EF92FF920F931F93F3
:10034000CF93DF93CDB7DEB7C152D4400FB6F89448
:10035000DEBF0FBECDBFFE0131968E010F5F1B4F7A
:100360007F0111921192E017F107D9F780910601F0
:1003700020E4829FC0011124816180937C0062E3AC
:1003800070E080E090E00E945B2410927B008091FE
:100390007A00806280937A0080917A0080648093F2
:1003A0007A0080917A00846080937A0080917A004C
:1003B0008D7F80937A0080917A008E7F80937A007F
:1003C00080917A00806180937A0080917A0084FF26
:1003D000FCCF80917A00806180937A0080917800D0
:1003E0008093F201809179008093F1018091060160
:1003F00050E4859FC0011124806180937C0010929D
:100400007B0080917A00806280937A0080917A00EC
:10041000806480937A0080917A00846080937A006F
:1004200080917A008D7F80937A0080917A008E7F10
:1004300080937A008091F101E0E88E9FC001112441
:100440002091F20130E035952795822B932B8F3F39
:10045000910511F00CF0FCC093959093F0018093FE
:10046000EF018091EF019091F0019093F40180935E
:10047000F30181E085B980917A00806180937A00F0
:1004800080917A0084FFFCCF8FE984B984E690E004
:100490000E9494248EE984B980917A0080618093CF
:1004A0007A0080917A0084FFFCCF8FE984B9000044
:1004B00000000000000000008EE984B980917A00FD
:1004C000806180937A000E94F30020EB33EBD12C03
:1004D000C12C6FE97EE980917A0084FFFCCF000097
:1004E0000000000000000000000064B900000000EF
:1004F00000000000000074B980917A008061809350
:100500007A00409178004093F201809179008093C5
:10051000F101F0E88F9FC001112450E055954795F7
:10052000842B952B8F3F910511F00CF093C0939580
:100530009093F0018093EF018091EF019091F00191
:10054000E091ED01F091EE01E817F90708F084C0A1
:100550009093EE018093ED015FEFC51AD50A21500B
:10056000310909F0B8CF6AE471E0CE01845E9B4F97
:100570000E943B2261E471E0CE01845E9B4F0E94A9
:100580005F236091F9017091FA014AE0C8010E946D
:10059000B322B801CE01845E9B4F0E945823C8014C
:1005A0000E94CC2166E471E0CE01845E9B4F0E94E4
:1005B0005F234091E9015091EA016091EB01709154
:1005C000EC012AE0C8010E94DF22B801CE01845E5E
:1005D0009B4F0E945823C8010E94CC2161E971E021
:1005E000CE01845E9B4F0E945F234AE06091E80148
:1005F000C8010E945A22B801CE01845E9B4F0E941E
:100600005823C8010E94CC2168E471E0CE01845EC9
:100610009B4F0E945F230E94F300209107013091BD
:100620000801C9010496FC01EE0FFF1FEE0DFF1D2E
:10063000812C912C540124503F4F82179307D0F402
:1006400041915191840E951EA11CB11C0196F5CFCC
:100650009A9503CF9A956CCFEE0FFF1FEE0DFF1DFD
:10066000808191810196918380831092EE01109296
:10067000ED0175CF6BE471E0CE01845E9B4F0E946B
:100680005F236091F9017091FA014AE0C8010E946C
:10069000B322B801CE01845E9B4F0E945823C8014B
:1006A0000E94CC2166E471E0CE01845E9B4F0E94E3
:1006B0005F234091E9015091EA016091EB01709153
:1006C000EC012AE0C8010E94DF22B801CE01845E5D
:1006D0009B4F0E945823C8010E94CC2161E971E020
:1006E000CE01845E9B4F0E945F234AE06091E80147
:1006F000C8010E945A22B801CE01845E9B4F0E941D
:100700005823C8010E94CC2166E471E0CE01845ECA
:100710009B4F0E945F234AE0B601C8010E94B322AA
:10072000B801CE01845E9B4F0E945823C8010E94ED
:10073000CC2166E471E0CE01845E9B4F0E945F2372
:100740002AE0B501A401C8010E94DF22B801CE0150
:10075000845E9B4F0E945823C8010E94CC2166E40E
:1007600071E0CE01845E9B4F0E945F236091F30194
:100770007091F4014AE0C8010E94B322B801CE0191
:10078000845E9B4F0E945823C8010E94CC21809117
:100790000701909108016C01E1E0CE1AD108815067
:1007A0009048880F991FE80EF91E809107019091DB
:1007B000080185509F4FC816D906E0F466E471E041
:1007C000CE01845E9B4F0E945F23F701619171917E
:1007D0007F014AE0C8010E94B322B801CE01845EC5
:1007E0009B4F0E945823C8010E94CC21FFEFCF1AD3
:1007F000DF0ADBCF8091F9019091FA010196909385
:10080000FA018093F9018EEB84B98FE085B964E039
:1008100088E192E00E94010A81111FC062E571E047
:1008200089E195E00E94B521CE01845E9B4F0E9434
:10083000CC21CF5DDB4F0FB6F894DEBF0FBECDBF2E
:10084000DF91CF911F910F91FF90EF90DF90CF90AC
:10085000BF90AF909F908F9008954091FD0150916F
:10086000FE0123E168E172E0C8010E94210BC8018A
:100870000E94F5088823B9F1BE01645E7B4FC80170
:100880000E94A321C8010E94E3088EE984B981E097
:1008900085B96BE470E0CE01845E9B4F0E94CC234F
:1008A000BE01645E7B4F89E195E00E94A32161E077
:1008B00087E10E9441256AE070E080E090E00E94BC
:1008C0005B2460E087E10E9441258091F9019091CD
:1008D000FA0189309F4C08F4A7CFE091E601F0912E
:1008E000E7010995A1CF6FE671E089E195E00E94EB
:1008F000B521CBCFEF92FF920F931F93CF93DF934E
:10090000CDB7DEB7C254D1090FB6F894DEBF0FBE23
:10091000CDBF61E570E08DE694E00E94371B63E295
:100920008DE694E00E94D11A60E08DE694E00E948A
:10093000D11A60E08DE694E00E94D11A65E08DE660
:1009400094E00E94D11A60E08DE694E00E94D11AF2
:1009500060E08DE694E00E94D11A67E98DE694E0AC
:100960000E94D11A60E08DE694E00E94D11A60E006
:100970008DE694E00E94D11A8DE694E00E94B51BAA
:1009800061E570E08DE694E00E94371B6FE270E055
:100990008DE694E00E94BB006CE270E08DE694E08E
:1009A0000E94BB008DE694E00E94B51B61E570E0FB
:1009B0008DE694E00E94371B68E270E08DE694E0DB
:1009C0000E94BB0067E970E08DE694E00E94BB00E6
:1009D0008DE694E00E94B51B61E570E08DE694E041
:1009E0000E94371B60E08DE694E00E94D11A60E01F
:1009F0008DE694E00E94D11A60E08DE694E00E94BA
:100A0000D11A60E08DE694E00E94D11A60E08DE694
:100A100094E00E94D11A60E08DE694E00E94D11A21
:100A200060E08DE694E00E94D11A8DE694E00E9489
:100A3000B51B26E040E855E260E070E089E195E012
:100A40000E946C206AE871E089E195E00E94B5217E
:100A50008091060120E4829FC0011124806180936F
:100A60007C0010927B0080917A00806280937A00F3
:100A700080917A00806480937A0080917A0084600B
:100A800080937A0080917A008D7F80937A008091A4
:100A90007A008E7F80937A0061E080E00E940525D5
:100AA0008EE984B915B88CEF81B912B89CEE97B96C
:100AB00018B88AB980E88BB961E087E10E94052502
:100AC00060E087E10E94412560E080E00E944125CE
:100AD00063E0E62EF12C62E370E080E090E00E949B
:100AE0005B2461E087E10E9441256AE070E080E0DC
:100AF00090E00E945B2460E087E10E94412581E054
:100B0000E81AF10841F758E0F52E8091060120E43B
:100B1000829FC0011124816180937C0068EC70E0A9
:100B200080E090E00E945B2410927B0080917A002C
:100B3000806280937A0080917A00806480937A004A
:100B400080917A00846080937A0080917A008D7F12
:100B500080937A0080917A008E7F80937A008091D2
:100B60007A00806180937A0080917A0084FFFCCFC4
:100B700080917A00806180937A00809178008093E0
:100B8000F201809179008093F1018091060120E4C7
:100B9000829FC0011124806180937C0010927B00B1
:100BA00080917A00806280937A0080917A008064DC
:100BB00080937A0080917A00846080937A0080919B
:100BC0007A008D7F80937A0080917A008E7F809367
:100BD0007A008091F10120E8829FC00111242091C8
:100BE000F20130E035952795822B932B8F3F9105AD
:100BF00011F00CF0CEC093959093F0018093EF012B
:100C00008091EF019091F001080F191FFA94F110F3
:100C10007CCF83E0169507958A95E1F7109308013C
:100C20000093070163E971E089E195E00E94B52135
:100C30004AE060E071E0CE0101960E9487226CE9F3
:100C400071E0CE014C960E943B226FE072E0CE0133
:100C50004C960E946E2366E471E00E94812369E055
:100C600072E00E946E2366E471E00E94812363E0DB
:100C700072E00E946E2366E471E00E948123BE014F
:100C80006F5F7F4F0E946E2366E471E00E948123B4
:100C9000BC01CE01CD960E942323CE014C960E942A
:100CA000CC21CE0101960E94CC2168E570E08DE652
:100CB00094E00E94371B68E070E08DE694E00E94AB
:100CC000BB0070E060E08DE694E00E94BB008DE622
:100CD00094E00E94B51B40E168E58DE694E00E9437
:100CE000AF1B10E18DE694E00E94AE1A082F803110
:100CF00030F46FE371E0CE01CD960E945F2340E1B6
:100D0000602FCE0101960E945A22BE016F5F7F4F75
:100D1000CE01CD960E945823CE0101960E94CC218F
:100D20008091F5019091F601A091F701B091F80141
:100D3000800F911DA11DB11D8093F5019093F601C7
:100D4000A093F701B093F801115061F68EEB84B9CE
:100D50008FE085B964E088E192E00E94010A811188
:100D60001AC062E571E089E195E00E94B521CE01EB
:100D7000CD960E94CC21CE5BDF4F0FB6F894DEBF3C
:100D80000FBECDBFDF91CF911F910F91FF90EF90DC
:100D900008959A9531CF81E090E09093FC01809383
:100DA000FB016091FB017091FC016436710578F5DF
:100DB0004AE0CE014C960E94B322BE01645E7F4F92
:100DC000CE0101960E94232365E871E0CE010196D1
:100DD0000E948123BC018DEF91E00E940C23CE0183
:100DE00001960E94CC21CE014C960E94CC216091AC
:100DF000FD017091FE0188E192E00E94AC0B882316
:100E000031F08091FB019091FC010196C6CF609179
:100E1000FB017091FC01615071097093FC016093BA
:100E2000FB014AE0CE014C960E94B322BE01645EF3
:100E30007F4FCE0101960E94232365E871E0CE0129
:100E400001960E948123BC018DEF91E00E940C234A
:100E5000CE0101960E94CC21CE014C960E94CC215D
:100E60004091FD015091FE0123E168E172E0CE0165
:100E70004C960E94210BCE014C960E94A508613031
:100E80007F438B4A914008F45BC0CE014C960E9490
:100E9000E3086091FB017091FC016F5F7F4F7093DD
:100EA000FC016093FB014AE0CE01C7960E94B32289
:100EB000BE01695C7F4FCE0101960E94232365E845
:100EC00071E0CE0101960E948123BC018DEF91E07B
:100ED0000E940C23CE0101960E94CC21CE01C79620
:100EE0000E94CC214091FD015091FE0123E168E177
:100EF00072E0CE0101960E94210B8B819C819F8F15
:100F00008E8F8D819E81AF81B88588A399A3AAA376
:100F1000BBA389859A85AB85BC858CA39DA3AEA315
:100F2000BFA3DE011D96FE01B896CE01C5962D9198
:100F30002193E817F907D9F78A8D9B8D9EAB8DAB6E
:100F4000CE014C960E94F5088823B9F0BE01635C7F
:100F50007F4FCE014C960E94A321CE014C960E9459
:100F6000E308BE01635C7F4F89E195E00E94A32105
:100F70008EE984B981E085B9FACE6FE671E089E146
:100F800095E00E94B521F4CFE5E1F2E088E68083A8
:100F900012821182089590E080E00895CF93DF934C
:100FA0001F92CDB7DEB76983DC01ED91FC91028021
:100FB000F381E02D41E050E0BE016F5F7F4F099566
:100FC0000F90DF91CF910895CF93DF93EC01E98DDE
:100FD000FA8D309749F481E090E09B838A8390E01A
:100FE00080E0DF91CF91089513821282898D9A8DCE
:100FF0000E944D14E98DFA8D22813381232B59F7FC
:10100000F0CFFC01818D928D009711F00C94DC11D2
:101010000895CF93DF931F92CDB7DEB741E050E044
:10102000BE016F5F7F4F0E940010019731F48981EC
:1010300090E00F90DF91CF9108958FEF9FEFF9CF60
:10104000FC01818D928D009711F00C9409088FEFAF
:101050009FEF08950F931F93CF93DF93EC01898D3A
:101060009A8D10E000E0009799F00E9409088C0129
:101070000F3F100769F0898D9A8DFC0142855385D9
:101080006485758541505109610971090E944811B3
:10109000C801DF91CF911F910F910895EF92FF92B8
:1010A0000F931F93CF93DF93EC017B018A011B8287
:1010B0001A8288EE93E0A0E0B0E08C839D83AE833B
:1010C000BF8386EA91E0998388838DE190E00E9456
:1010D000B5259A8F898F009779F02DE1F701DC0112
:1010E00001900D922A95E1F74CE050E0B801CE0155
:1010F0000C960E94E327188EDF91CF911F910F91DC
:10110000FF90EF900895FC011382128288EE93E025
:10111000A0E0B0E084839583A683B78386EA91E05C
:1011200091838083128E118E14860895DC01599666
:10113000ED91FC91309729F06285738584859585C2
:1011400008956FEF7FEFCB010895DC015996ED9183
:10115000FC91309729F0638974898589968908956F
:1011600060E070E0CB010895CF92DF92EF92FF92A2
:10117000CF93DF93FC01218D328D232B09F1EC01FC
:101180000E94A5086B017C01CE010E949608A70170
:101190009601261B370B480B590BDA01C901811543
:1011A00030E89307A105B10520F08FEF9FE7A0E09D
:1011B000B0E0DF91CF91FF90EF90DF90CF90089556
:1011C00090E080E0F6CFCF93DF93EC01898D9A8D8C
:1011D000009741F00E942512898D9A8D0E94512618
:1011E0001A8E198EDF91CF910895DC015996ED91F9
:1011F000FC91309721F081E09581911101C080E050
:1012000008951F93CF93DF93CDB7DEB76D970FB6D9
:10121000F894DEBF0FBECDBFAB011C821B822AEB50
:1012200031E03A8329831E8221E0BC01CE01019680
:101230000E94601311E081110CC010E0812F6D96A7
:101240000FB6F894DEBF0FBECDBFDF91CF911F91D7
:101250000895CE0101960E942512F0CFEF92FF92E1
:101260000F931F93CF93DF937B01DB012D913C9173
:10127000FC01E20FF31F60816F3211F42F5F3F4FCB
:101280008C01020F131FEA01F0E0E0E0D8017D912C
:101290008D017F3249F0772339F02F5F3F4F319630
:1012A0007993EC30F10591F7E40FF51F1082FC0102
:1012B000E20FF31F40814F3211F42F5F3F4FF701D0
:1012C00031832083280F391F81E0D9019C9191112E
:1012D00001C080E0DF91CF911F910F91FF90EF90BF
:1012E00008954F925F926F927F928F929F92AF92EA
:1012F000BF92CF92DF92EF92FF920F931F93CF9303
:10130000DF93CDB7DEB7C954D1090FB6F894DEBF6D
:101310000FBECDBF5C016B013A01490119A218A2B1
:101320008AEB91E09F8F8E8F1BA21C821B829A8377
:1013300089831E822A961FAE1EAE2A978B017E01DC
:101340008EE1E80EF11C44244394AE01455C5F4FEE
:10135000BE01685B7F4FC5010E942E09582E482FA1
:1013600044259401BE01655C7F4FC801F3010995D6
:10137000811120C00C151D05C9F480E0C75BDF4F4B
:101380000FB6F894DEBF0FBECDBFDF91CF911F9196
:101390000F91FF90EF90DF90CF90BF90AF909F9014
:1013A0008F907F906F905F904F900895C8010E943A
:1013B0002512E3CF552091F021E0AE01455C5F4F4F
:1013C000B801C7010E946013582E0C151D0571F05D
:1013D000C8010E94251251100EC0CFCF0C151D055B
:1013E00019F0C8010E94251281E0C8CF882329F294
:1013F0008E010F5F1F4F902F812F8701E92EF82E4E
:10140000A4CF0F931F93CF93DF93EC01162F8FA5DB
:10141000882321F0CE018A960E942512412F61E097
:10142000CE010E94C30C811102C090E012C08E0157
:10143000045F1F4F41E0BE01C8010E948719882345
:1014400071F0B801CE018A960E94B00F91E0882316
:1014500061F3892FDF91CF911F910F91089540E0A3
:10146000BE01C8010E9487198823F9F2EACFFC0166
:10147000DB0112968D919C911397938382838AEB63
:1014800091E09183808314968C91149784831596B0
:101490008C911597858316964D915D916D917C91F8
:1014A000199746835783608771871A964D915D918E
:1014B0006D917C911D9742875387648775871E962F
:1014C0004D915D916D917C91519746875787608BC7
:1014D000718B52968C915297828B53964D915D9160
:1014E0006D917C915697438B548B658B768B579679
:1014F0004D915D916D917C915A97478B508F618F83
:10150000728F5B968D919C91948F838F08954F92EB
:101510005F926F927F928F929F92AF92BF92CF9283
:10152000DF92EF92FF920F931F93CF93DF93CDB78C
:10153000DEB7C754D1090FB6F894DEBF0FBECDBFDA
:101540005C014A013901665D7F4F7E018EE1E80E44
:10155000F11CC7010E94370A1C821B828AEB91E0B2
:101560009A8389831E828401FE0131966F015E2C6D
:101570004F2C6FE270E0C8010E94D127009709F458
:1015800055C0F80120812F3219F40F5F1F4FF1CFA2
:10159000801B8D3008F08CE0E82EF12CA701B801FB
:1015A000CE01CB960E94E327EBE3F0E0EC0FFD1FAA
:1015B000EE0DFF1D1082C6010E94251221E0AE0132
:1015C000455C5F4F652D742DC6010E94601381112B
:1015D00021C0F501138212828AEB91E0918380830E
:1015E0001582C501C95BDF4F0FB6F894DEBF0FBE91
:1015F000CDBFDF91CF911F910F91FF90EF90DF90C2
:10160000CF90BF90AF909F908F907F906F905F90A2
:101610004F9008950E0D1F1D852D942D0E942512AB
:10162000C2015C2C4D2CC92ED82EA3CF0819190944
:10163000F30111830083652D742DC5010E94370AC3
:10164000D0CFAF92BF92CF92DF92FF920F931F93B2
:10165000CF93DF93CDB7DEB7C955D1090FB6F89454
:10166000DEBF0FBECDBF6C015B018A01F22E9E0171
:10167000285A3F4FCE01CB960E94870A6A968EADBC
:101680009FAD6A97080F191FF8018081811110C062
:10169000BE01655C7F4FCE0101960E94370A44EB84
:1016A00051E0BE016F5F7F4FC6010E944E080FC020
:1016B00019A218A28AEB91E09F8F8E8F1BA2219610
:1016C0008FAD2197811115C0C6010E948308C60104
:1016D000C75ADF4F0FB6F894DEBF0FBECDBFDF9104
:1016E000CF911F910F91FF90DF90CF90BF90AF905F
:1016F000089582508230F8F4B501665D7F4F2F2D3A
:10170000A801CE014E960E9460138823E9F28F2D26
:10171000867041F049A95AA96BA97CA9CE014E96C1
:101720000E944811BE01625E7F4FCE0101960E9469
:10173000370AA801B6CF2F2DA801BE01655C7F4FE7
:10174000CE014E960E946013882309F4BDCFCE01CE
:10175000CB960E942512DBCFFB01BC01665D7F4F5B
:1017600030E020E041E059E0CF010C947109E8E15C
:10177000F2E0158216821186138682E090E0A0E0E6
:10178000B0E084879587A687B78713A215A614A60D
:101790008AEB91E093A782A717A608959FB7F894C4
:1017A0002091170580911505213019F48DBB9FBF3D
:1017B00008958FBF089520911705222381F03FB728
:1017C000F89420911705213069F42DB32093150565
:1017D0004DB320911605209524232DBB3FBF8CBD12
:1017E0009DBD089530931505FACF8EBD00000DB450
:1017F00007FEFDCF8EB508958FEF0C94F50B61E0D9
:10180000FC0184810E94412580916102882339F086
:10181000109261028091170581110C94CE0B0895EE
:10182000CF93DF93EC0180916102811109C081E0C7
:101830008093610280916202909163020E94DB0BAF
:1018400060E08C81DF91CF910C944125CF93DF93A1
:10185000EC018E81882389F08F8198859C012F5F10
:101860003F4F38872F838230924018F40E94FC0B40
:10187000F3CFCE010E94FF0B1E82DF91CF9108951E
:10188000673028F026E1FC01258380E0089580E59B
:10189000653018F0653039F081E58093620281E0AF
:1018A00080936302089580E5809362021092630240
:1018B00081E008950F931F93CF93DF93EB010E9474
:1018C0002A248B010E94FC0B8F3F69F00E942A247E
:1018D000601B710B6C177D07A8F380E0DF91CF913F
:1018E0001F910F91089581E0F9CF8F929F92AF924F
:1018F000BF92FF920F931F93CF93DF93EC01F62ECD
:1019000049015A010E94260CCE010E94100C6CE283
:1019100071E0CE010E945A0C8F2D80640E94F50B5D
:1019200008E110E0D501C401002E04C0B695A795CA
:10193000979587950A94D2F70E94F50B08501109E4
:10194000083F8FEF180771F785E9FF2021F088E045
:10195000F8120DC087E80E94F50B10E00E94FC0B06
:101960008A8787FF06C01F3F21F01F5FF7CF8FEFE9
:10197000F2CFDF91CF911F910F91FF90BF90AF9069
:101980009F908F9008958F929F92AF92BF92EF9207
:10199000FF920F931F93CF93DF93EC01E62E1B86EC
:1019A00019861E821D824C830E942A248B0161E0CD
:1019B0008C810E94052561E08C810E9441250E9456
:1019C000561F80E58093620210926302809162024A
:1019D000909163020E94DB0B2AE0F22E8FEF0E94AF
:1019E000F50BFA94F110FACF8091170581110E943E
:1019F000CE0BCE010E94100C20E030E0A90160E087
:101A0000CE010E94750CF82E8A8781E0F816C1F08D
:101A10000E942A24601B710B613D774068F381E0CE
:101A20008D83CE010E94FF0B80E0DF91CF911F914B
:101A30000F91FF90EF90BF90AF909F908F9008957F
:101A40002AEA31E040E050E068E0CE010E94750CE7
:101A500082FF25C0FB868B85812C912C540182301E
:101A600029F4812C912CA12C80E4B82E20E030E0C8
:101A7000A90167E3CE010E94750CA501940169E2FA
:101A8000CE010E94750C8A878823C1F00E942A2407
:101A9000601B710B613D774048F388E0C1CF94E053
:101AA000F92E0E94FC0B8A87FA94F110FACF8A3A39
:101AB00011F082E0B5CF82E08B87CDCF8B8582306D
:101AC000C1F420E030E0A9016AE3CE010E94750C68
:101AD000882311F086E0A4CF0E94FC0B807C803C20
:101AE00011F483E08B870E94FC0B0E94FC0B0E9488
:101AF000FC0BCE010E94FF0B6E2DCE01DF91CF912A
:101B00001F910F91FF90EF90BF90AF909F908F909B
:101B10000C94400C0F931F93CF93DF93EC010E9422
:101B20002A248B010E94FC0B8A878F3F91F40E942C
:101B30002A24601B710B6D327140A0F38FE08D83FE
:101B4000CE010E94FF0B80E0DF91CF911F910F919A
:101B500008958E3F11F08DE0F2CF81E0F5CFCF9266
:101B6000DF92EF92FF920F931F93CF93DF93EC01DD
:101B70006901C801820F931F8130924048F58E8120
:101B8000882371F088819981AA81BB818417950788
:101B9000A607B70729F48F819885C816D90670F56E
:101BA000488359836A837B838B85833039F089E04E
:101BB000440F551F661F771F8A95D1F79A01AB0115
:101BC00061E1CE010E94750C882379F083E08D835A
:101BD000CE010E94FF0B80E0DF91CF911F910F910A
:101BE000FF90EF90DF90CF900895CE010E948A0D74
:101BF000882371F318861F8281E08E838F819885F8
:101C00008C159D0560F06701E00EF11EEC14FD04DB
:101C100071F00E94FC0BF60181936F01F7CF0E94D7
:101C2000FC0B8F819885019698878F83E7CF8F81F2
:101C30009885080F191F18870F838985882319F045
:101C40000115124018F0CE010E94260C81E0C4CF8D
:101C5000EF92FF920F931F930115110539F00E9427
:101C6000AF0D1F910F91FF90EF90089581E0F9CF94
:101C7000EF92FF920F931F93790100E012E030E0A2
:101C800020E00E94AF0D1F910F91FF90EF900895FB
:101C9000EF92FF920F931F93CF93DF938C01862FC8
:101CA0007A010E94F50BE7018EEFF81A89910E94E4
:101CB000F50BCE15DF05D1F78FEF0E94F50B8FEFF7
:101CC0000E94F50B0E94FC0BF80182878F71853012
:101CD00069F081E18583C8010E94FF0B80E0DF91FC
:101CE000CF911F910F91FF90EF90089581E0F7CF72
:101CF0000F931F93CF93DF93EC01890182E141158C
:101D000051056105710599F08B85833039F089E0C3
:101D1000440F551F661F771F8A95D1F79A01AB01B3
:101D200068E1CE010E94750C882339F084E08D8330
:101D3000CE010E94FF0B80E023C0A8016EEFCE0110
:101D40000E94480E8823A1F368E572E0CE010E944C
:101D50005A0C811102C085E1EACF20E030E0A901F0
:101D60006DE0CE010E94750C882311F084E1DFCF75
:101D70000E94FC0B8111FACFCE010E94FF0B81E083
:101D8000DF91CF911F910F910895E2E6F2E080E597
:101D9000808381E0818308950895CF93DF93EC01E0
:101DA0009C012A5F3F4F41E050E060E070E08B8D86
:101DB0009C8D0E9426188823A1F08F89988DA98D6B
:101DC000BA8D892B8A2B8B2B59F48E819F81A88504
:101DD000B9858F8B988FA98FBA8F8C8180688C83FF
:101DE00081E0DF91CF9108958F929F92AF92BF9241
:101DF000CF92DF92EF92FF92CF93DF93EC010E949C
:101E0000CD0E81110CC080E0DF91CF91FF90EF905B
:101E1000DF90CF90BF90AF909F908F900895EB8D03
:101E2000FC8DCE80DF80E884F98482E0C81AD10876
:101E3000E108F108858504C0CC0CDD1CEE1CFF1CFC
:101E40008A95D2F786859785A089B189C80ED91E53
:101E5000EA1EFB1E848146015701880E911CA11CBD
:101E6000B11C8C149D04AE04BF0461F081E0881A9B
:101E70009108A108B108C501B4010E94741681112E
:101E8000F0CFC1CFEB8DFC8D258580E092E0A0E006
:101E9000B0E004C0880F991FAA1FBB1F2A95D2F774
:101EA0004B895C896D897E89840F951FA61FB71F9A
:101EB0008B8B9C8BAD8BBE8B81E0A6CFCF93DF93BA
:101EC000EC01462F6E857F85888999890E94391695
:101ED000882351F08A8920E2829FC001112483590E
:101EE0009D4FDF91CF91089590E080E0FACFFB0104
:101EF0009B01255F3F4F40E241932E173F07E1F7DB
:101F0000DC0120E037E09D91492F992319F19E32A1
:101F100029F43A3059F028E03AE0F5CFECE8F0E067
:101F20008491882329F031969813FACF80E017C066
:101F30003217A8F05FED590F5E3588F48FE9890FED
:101F40008A3110F440EE490FFB01E20FF11D40838E
:101F50002F5FD9CF81E0FB019081903239F3089552
:101F60000F931F93CF93DF93FC012581222331F040
:101F700080E0DF91CF911F910F9108958B01EC01CB
:101F8000FB018789803139F582E08D831F8A188EA5
:101F9000198E1A8E808D918DB0E0A0E025E0880F1B
:101FA000991FAA1FBB1F2A95D1F78B8B9C8BAD8BDA
:101FB000BE8B1C8F0B8F81E08C831E821F82188644
:101FC00019861A861B861C861D861E861F86188A01
:101FD000198A1A8ACECF803259F683E08D83428DDA
:101FE000538D648D758D4F8B588F698F7A8F9E01BD
:101FF0002D5E3F4FC8010E9419178111DACFB8CF6B
:102000002F923F924F925F926F927F928F929F9208
:10201000AF92BF92CF92DF92EF92FF920F931F93F6
:10202000CF93DF93EC015B012A018D81811115C0F3
:102030008FEF9FEFDF91CF911F910F91FF90EF9066
:10204000DF90CF90BF90AF909F908F907F906F90D8
:102050005F904F903F902F9008958C8180FFE8CF44
:102060000B891C892D893E894A855B856C857D8518
:10207000C201B0E0A0E068017901C41AD50AE60AFD
:10208000F70AC816D906EA06FB0618F42801441A0E
:10209000550A42011E0126E0220E311C81149104D2
:1020A00009F4B3C04A855B856C857D856A0181E052
:1020B000D8228B8D9C8D8A019B01E9E0369527956E
:1020C00017950795EA95D1F7ED81E230E1F5FC012E
:1020D000628D738D848D958D600F711F821F931F8C
:1020E000612C22E0722E6C187D088614970408F487
:1020F00034012C8126FD04C06114F2E07F0671F4E6
:102100000091090110910A0120910B0130910C01FD
:10211000061717072807390709F053C040E00E9447
:102120003916882309F484CFC60183599D4FD50100
:102130009C01260D371DFC012E173F0709F460C0D6
:1021400041914D93F9CFFC0174807A947022C114AF
:10215000D10471F471100CC0452B462B472B39F577
:102160008F89988DA98DBA8D8E839F83A887B98713
:10217000EB8DFC8D6E817F81888599856250710918
:1021800081099109258504C0660F771F881F991F53
:102190002A95D2F70685178520893189600F711F2E
:1021A000821F931F670D711D811D911D99CF4E8157
:1021B0005F816885798591010E9498168111D8CF39
:1021C00037CF750183019601AB01BC0180916B0291
:1021D00090916C020E94280E882309F429CFA60C46
:1021E000B71C8A859B85AC85BD85860D971DA11D75
:1021F000B11D8A879B87AC87BD87861897084ECF0D
:10220000281B390BA20EB31EECCFC20113CFFF92D5
:102210000F931F93CF93DF931F92CDB7DEB7FC01CF
:1022200025812230C8F08C014285538564857585EF
:1022300085E076956795579547958A95D1F7F42F60
:10224000FF70FF2E41E050E0BE016F5F7F4FC8017D
:102250000E940010019719F090E080E012C0F80190
:1022600082859385A485B5854F96A11DB11D828772
:102270009387A487B587F0E2FF9EC001112483599C
:102280009D4F0F90DF91CF911F910F91FF90089577
:102290008F929F92AF92BF92CF92DF92EF92FF9276
:1022A0000F931F93CF93DF93EC018D8181110EC0AB
:1022B00080E0DF91CF911F910F91FF90EF90DF9021
:1022C000CF90BF90AF909F908F9008950B891C89FD
:1022D0002D893E89041715072607370748F34A0159
:1022E0005B01823031F48A869B86AC86BD8681E0B4
:1022F000E0CF81149104A104B10449F41E821F822D
:10230000188619861A861B861C861D86F0CF0A85BC
:102310001B852C853D85EB8DFC8D858590E0099690
:10232000B901A8014150510961097109082E04C081
:1023300076956795579547950A94D2F7750164018C
:10234000E1E0CE1AD108E108F10804C0F694E79460
:10235000D794C7948A95D2F7C416D506E606F70631
:1023600020F0012B022B032B11F58F89988DA98D5D
:10237000BA8D8E839F83A887B9878E010A5F1F4F0E
:10238000C114D104E104F10409F4ADCF4E815F81A1
:102390006885798598018B8D9C8D0E94981691E0B7
:1023A000C91AD108E108F1088111EACF81CFC41A16
:1023B000D50AE60AF70AE1CF0F931F93CF93DF9375
:1023C000EC018D818823D9F18C8187FF32C061E0D7
:1023D000CE010E945E0F8C01892B89F18D818230A4
:1023E00048F48B899C89AD89BE89F801848F958FCB
:1023F000A68FB78F8F89988DF801938F828F8F89E1
:10240000988DA98DBA8DB58BA48BE0916402F09163
:102410006502309759F0B8016A5E7F4FC80148964F
:102420000995F801808D918D938B828B8C818F77AC
:102430008C83DF91CF911F910F910C94FE1580E05A
:10244000DF91CF911F910F910895CF93DF93EC010E
:102450000E94DC11882311F01D8281E0DF91CF9171
:1024600008954F925F926F927F928F929F92AF9258
:10247000BF92EF92FF920F931F93CF93DF9300D001
:1024800000D0CDB7DEB7FC0185818130A1F080E0BE
:102490000F900F900F900F90DF91CF911F910F91A0
:1024A000FF90EF90BF90AF909F908F907F906F9034
:1024B0005F904F900895848181FFE9CF838994894B
:1024C000A589B68984179507A607B70700F3892B56
:1024D0008A2B8B2B09F477C04A015B017F01428470
:1024E000538464847584CF010E944811882379F253
:1024F000F701838D948D81149104A104B10449F5F1
:102500004789508D618D728D0E943119882309F49D
:10251000BECFF701178A108E118E128EF701838AB3
:10252000948AA58AB68A848180688483C7010E94C0
:10253000DC11882309F4ABCFB501A401441655067C
:102540006606770610F4B301A201C7010E94481184
:102550009FCF46815781608571859E012F5F3F4FD8
:102560000E949816882309F492CFF701838D948DE9
:1025700049815A816B817C81FC0127892031F1F4EA
:1025800008EF1FEF20E030E04017510762077307A4
:1025900028F60E943119882309F479CFF701468182
:1025A0005781608571850FEF1FEF2FEF3FE0838D1F
:1025B000948D0E9484178111B1CF69CF08EF1FEF6E
:1025C0002FEF3FE0E1CF81E063CFCF92DF92EF9238
:1025D000FF921F93CF93DF93EC0180E2689FF0019D
:1025E0001124E359FD4F9385917161F0842F82741A
:1025F00049F080E0DF91CF911F91FF90EF90DF9045
:10260000CF900895142F6A8B8091090190910A014F
:10261000A0910B01B0910C018E879F87A88BB98B7D
:10262000C488D588F12CE12C7601DD24CC24CF8A16
:10263000D88EE98EFA8E828D938DB0E0A0E0AC0149
:10264000BD014C295D296E297F294F8B588F698FD9
:102650007A8F8385887129F5848D958DA68DB78DA8
:102660008B8B9C8BAD8BBE8B81E08D83812F8F708C
:102670008C831E821F82188619861A861B861C86EA
:102680001D8681E016FFB6CF40E050E0BA01CE01D2
:10269000DF91CF911F91FF90EF90DF90CF900C943E
:1026A0003112803109F0A5CF9E012D5E3F4F8B8DF9
:1026B0009C8D0E941917882309F49BCF84E0D5CF05
:1026C000BF92CF92DF92EF92FF920F931F93CF931F
:1026D000DF93CDB7DEB72B970FB6F894DEBF0FBEF2
:1026E000CDBFFC01358131110BC0C22E8B017C01A5
:1026F000BE016F5F7F4FCA010E94770F811102C038
:1027000080E0A1C0F801838D948DF701948F838FB1
:10271000F801168217821086118612861386148697
:102720001586B12CF80182859385A485B5854389EA
:1027300054896589768984179507A607B70788F5B0
:1027400025E0B695A795979587952A95D1F7F82F07
:10275000FF70DF2EC8010E940711009789F2FC016B
:102760002081222341F0253E09F059C0BB2029F0E9
:10277000BB24B394D7CFB1100EC0F701D28A4091D9
:10278000090150910A0160910B0170910C0146877B
:102790005787608B718BFC0180818111E9CFBB244D
:1027A000B3948C2D8271823109F0AACFBB2009F439
:1027B0005AC061E0C7010E945E0F8C01892B09F4A9
:1027C0009FCF80E2F80111928A95E9F78BE0FE0134
:1027D0003196D80101900D928A95E1F7E09164025B
:1027E000F0916502309709F44EC0B801625F7F4FE7
:1027F000C80140960995F80180899189938B828B55
:10280000918F808F86859785978B868B0E94FE158A
:10281000882309F475CF4C2DF701628911C04BE074
:1028200050E0BC01CE0101960E94BB27892B09F024
:1028300079CF8C2D80734C2D6D2D803309F460CFB2
:10284000C7010E94E5122B960FB6F894DEBF0FBEAB
:10285000CDBFDF91CF911F910F91FF90EF90DF904F
:10286000CF90BF900895F8018581823009F448CF58
:10287000C8010E94F40E882309F442CFF701128A9E
:102880000DE612E09ECF81E298E2F801918B808BF9
:1028900080E098E097878687AECF2F923F924F9245
:1028A0005F926F927F928F929F92AF92BF92CF92E0
:1028B000DF92EF92FF920F931F93CF93DF9300D09D
:1028C00000D0CDB7DEB78C016B011A01DC01159683
:1028D0008C911597813009F0C8C014968C9181FFB6
:1028E000C4C082FDAEC04101D8011A964D915D91E0
:1028F0006D917C911D978114910409F429C15B9617
:102900008D919C915C97FC0174802FEF270D2A011B
:102910003B0139E076946794579447943A95D1F700
:10292000722E74207A01F1E0FF22711020C0E114B0
:10293000F104E9F416964D915D916D917C91199792
:10294000411551056105710509F098C057968D91A3
:102950009D910D90BC91A02D0097A105B10509F0A6
:10296000AFC0C8010E94CD0E882309F47EC080E06C
:1029700092E08E199F0954018815990508F45C01AD
:10298000D8015B964D915C915C9716968D919D91C7
:102990000D90BC91A02D0297A109B109FA012585DE
:1029A00004C0880F991FAA1FBB1F2A95D2F746851E
:1029B000578560897189840F951FA61FB71F9C01D9
:1029C000AD01270D311D411D511D29013A01A114F1
:1029D00032E0B30609F07AC08091090190910A01B2
:1029E000A0910B01B0910C0184159505A605B705C2
:1029F00059F48FEF9FEFDC018093090190930A0156
:102A0000A0930B01B0930C019601B301A201809138
:102A10006B0290916C020E94780E882331F19EEF38
:102A2000D91A8A189B08F80182859385A485B585F3
:102A30008A0D9B1DA11DB11D82879387A487B58731
:102A400053CFF801438954896589768982859385B6
:102A5000A485B585481759076A077B0709F443CF52
:102A6000C8010E94481181113ECF81E090E0D80159
:102A700013969C938E93129780E007C09E012F5F60
:102A80003F4F0E949816811102C090E07BC089815F
:102A90009A81AB81BC81F801238D348DF90127899E
:102AA00048EF5FEF60E070E0203121F048EF5FEF2A
:102AB0006FEF7FE084179507A607B70708F051CF9F
:102AC000F80186839783A087B18751CFE114F10481
:102AD00091F5D8011A964D915D916D917C911D975C
:102AE00053968D919D910D90BC91A02D481759073B
:102AF0006A077B0700F10E94FE15882309F4B5CF11
:102B00004092090150920A0160920B0170920C01EF
:102B100080916A02816080936A02970123593D4F38
:102B2000D601C9018A0D9B1DF9018E179F0759F027
:102B30004D914193FACF41E0C301B2010E94391691
:102B40008111EBCF92CF821B930BC80ED91E69CF98
:102B500014968C9114975396CD90DD90ED90FC9047
:102B60005697C416D506E606F70618F5F801438B06
:102B7000548B658B768B80688483F801848183FD18
:102B800025C0C1010F900F900F900F90DF91CF9152
:102B90001F910F91FF90EF90DF90CF90BF90AF907B
:102BA0009F908F907F906F905F904F903F902F906D
:102BB00008952091640230916502232BF1F22114D3
:102BC0003104D9F2806814968C93D7CFC8010E9443
:102BD000DC11882309F449CFD4CFCF93DF931F9220
:102BE000CDB7DEB7698341E050E0BE016F5F7F4F34
:102BF0000E944D140F90DF91CF91089580916A0249
:102C00008823A9F14091090150910A0160910B01BB
:102C100070910C012DE632E080916B0290916C0274
:102C20000E94780E811102C080E0089540916602F2
:102C300050916702609168027091690241155105D7
:102C40006105710591F02DE632E080916B02909163
:102C50006C020E94780E882339F31092660210925B
:102C60006702109268021092690210926A0281E073
:102C70000895CF92DF92EF92FF92CF936B017C0188
:102C8000C42F8091090190910A01A0910B01B0918C
:102C90000C018C159D05AE05BF05F9F00E94FE15CF
:102CA000811107C080E0CF91FF90EF90DF90CF902F
:102CB00008952DE632E0B701A60180916B02909154
:102CC0006C020E94380E882369F3C0920901D092E9
:102CD0000A01E0920B01F0920C0140916A024C2B28
:102CE00040936A0281E0DFCFCF92DF92EF92FF92B2
:102CF0006B017C010E94FE158823A9F0EDE6F2E04D
:102D0000119284E0ED36F807D9F7C0920901D0920C
:102D10000A01E0920B01F0920C0180916A0281603D
:102D200080936A0281E0FF90EF90DF90CF9008954A
:102D30008F929F92AF92BF92CF92DF92EF92FF92CB
:102D40000F931F93CF93DF93FC0181859285A38519
:102D5000B4850196A11DB11D84179507A607B70775
:102D600070F480E0DF91CF911F910F91FF90EF9071
:102D7000DF90CF90BF90AF909F908F900895838801
:102D80009488A588B6888789803189F5BB27A72FC5
:102D9000962F852FE9016A017B018F01BC01CD01CE
:102DA000680D791D8A1D9B1D8090090190900A0174
:102DB000A0900B01B0900C0186169706A806B906E4
:102DC00001F5F8018789803111F5DD24EE24FF2417
:102DD000F601EE0FFF1FE359FD4F80819181B0E0B6
:102DE000A0E088839983AA83BB8381E0BBCFDB010A
:102DF000CA01C7E0B695A79597958795CA95D1F76B
:102E0000C9CF40E00E9439168111DBCFAACFE894E8
:102E1000C7F8DD24EE24FF24F601EE0FFF1FEE0FAE
:102E2000FF1FE359FD4F80819181A281B381BF7063
:102E3000D8CF4F925F926F927F92AF92BF92CF9214
:102E4000DF92EF92FF920F931F93CF93DF9300D007
:102E500000D0CDB7DEB78C0149835A836B837C8366
:102E60005901C12CD12C7601412C82E0582E612CC5
:102E7000712C49815A816B817C819E012F5F3F4F6C
:102E8000C8010E949816882339F1F8018585A301AD
:102E9000920104C0220F331F441F551F8A95D2F799
:102EA000DA01C901C80ED91EEA1EFB1E49815A81EA
:102EB0006B817C818789803111F188EF9FEFAFEFC3
:102EC000BFE0481759076A077B0798F2F501C082EF
:102ED000D182E282F38281E00F900F900F900F90E9
:102EE000DF91CF911F910F91FF90EF90DF90CF90E6
:102EF000BF90AF907F906F905F904F90089588EF54
:102F00009FEFA0E0B0E0DDCF4F925F926F927F9293
:102F10008F929F92AF92BF92CF92DF92EF92FF92E9
:102F20000F931F93CF93DF93EC014230510561055E
:102F3000710590F480E0DF91CF911F910F91FF9088
:102F4000EF90DF90CF90BF90AF909F908F907F9049
:102F50006F905F904F90089589859A85AB85BC8569
:102F60000196A11DB11D84179507A607B70710F399
:102F7000CB88DC88ED88FE888F89803109F042C0DB
:102F8000BB27A72F962F852F480159012A013B0106
:102F9000C80ED91EEA1EFB1E8091090190910A01FC
:102FA000A0910B01B0910C01C816D906EA06FB06E8
:102FB00099F58F898031C1F5B301A20155276627A4
:102FC0007727440F551F43595D4FFA019182808244
:102FD00080916A02816080936A028A89823080F0DF
:102FE0008D819E81AF81B8858C0D9D1DAE1DBF1D4D
:102FF0008093660290936702A0936802B09369027F
:1030000081E099CFDB01CA01E7E0B695A7959795D6
:103010008795EA95D1F7B8CF40E0C701B6010E9485
:1030200039168111C6CF86CFB301A2014F7755273C
:1030300066277727440F551F440F551F43595D4F8F
:10304000FA0180829182A282B382C2CF2F923F92F4
:103050004F925F926F927F928F929F92AF92BF92A8
:10306000CF92DF92EF92FF920F931F93CF93DF9354
:10307000CDB7DEB72F970FB6F894DEBF0FBECDBF2A
:103080003C01488759876A877B873F832E83D90114
:10309000CD90DD90ED90FC90C114D104E104F104D9
:1030A00039F0BFEFCB1ADB0AEB0AFB0A1D8210C016
:1030B000FC01C080D180E280F380F1E0FD830885CF
:1030C00019852A853B85013011052105310571F7E8
:1030D000F30181859285A385B4858C019D010F5FE5
:1030E0001F4F2F4F3F4F0C871D872E873F8746016D
:1030F0005701212C312C2101F30181859285A38573
:10310000B485281639064A065B0608F044C00C85CB
:103110001D852E853F85081519052A053B0550F4A8
:1031200082E0882E912CA12CB12C92E0C92ED12CBA
:10313000E12CF12C9E012F5F3F4FB501A401C3018B
:103140000E949816882339F1D501C4010196A11D6A
:10315000B11D49815A816B817C81452B462B472BC0
:10316000A9F5AC01BD014C195D096E097F090885FF
:1031700019852A853B85401751076207730741F57A
:103180000FEF1FEF2FEF3FE0B501A401C3010E9435
:103190008417811125C01D828D812F960FB6F8945A
:1031A000DEBF0FBECDBFDF91CF911F910F91FF907A
:1031B000EF90DF90CF90BF90AF909F908F907F90D7
:1031C0006F905F904F903F902F9008956C017D011C
:1031D0001FEF211A310A410A510A4C015D018CCFBF
:1031E000C814D904EA04FB0488F41401250121E081
:1031F000221A31084108510895018401B201A10148
:10320000C3010E94841752014101C3CFAE81BF8127
:103210004D915D916D917C9141155105610571054F
:1032200061F4EE81FF81C082D182E282F382FD816E
:10323000F1110BC001E00D83AFCF97018601C301EF
:103240000E9484178111EDCFA6CF1FEFC11AD10ABA
:10325000E10AF10AD301CD92DD92ED92FC9213972F
:103260009BCFAF92BF92CF92DF92EF92FF920F93DC
:103270001F93CF93DF9300D000D0CDB7DEB75C01B2
:103280006A017B0182E090E0A0E0B0E0F50180837C
:103290009183A283B3839E012F5F3F4FB701A601A5
:1032A000C5010E949816882381F100E010E0980182
:1032B000B701A601C5010E948417882331F1C98096
:1032C000DA80EB80FC80F50187898031C9F088EFD6
:1032D0009FEFAFEFBFE0C816D906EA06FB06D8F2AB
:1032E00081E00F900F900F900F90DF91CF911F9181
:1032F0000F91FF90EF90DF90CF90BF90AF90089527
:1033000088EF9FEFA0E0B0E0E6CF80E0EACF8F92B9
:103310009F92AF92BF92CF92DF92EF92FF920F9364
:103320001F93CF93DF93EC01142F70936C02609383
:103330006B02442309F478C0453070F080E0DF91DF
:10334000CF911F910F91FF90EF90DF90CF90BF90A2
:10335000AF909F908F90089540E060E070E0CB01C7
:103360000E943916882351F3812F8150990BAC01AB
:1033700064E0440F551F6A95E1F743595D4FFA0128
:10338000E254FE4F80818F77C9F63C96808191810F
:10339000A281B38184369105A105B10578F24A5323
:1033A0005E4FFA01C080D180E280F380C114D10465
:1033B000E104F10419F240E0C701B6010E94391698
:1033C000882309F4BBCF809178029091790281150E
:1033D000924009F0B3CF90917D02992309F4AECFCA
:1033E00020917B0230917C02232B09F4A7CF80919E
:1033F0007A02882309F4A2CF9A8B8C831D8690E0F1
:1034000041E050E02D85E22FBA01022E02C0660F86
:10341000771F0A94E2F78617970751F031E0320FD1
:103420003D87283078F38ACFC12CD12C7601C3CFC9
:10343000209183023091840250E040E02115310553
:1034400041F4209191023091920240919302509167
:1034500094022D833E834F83588780917B02909105
:103460007C0246015701880E991EA11CB11C8B8A53
:103470009C8AAD8ABE8A00917E0210917F02198FCC
:10348000088FA0917D02B0E00E949B25DC01CB015A
:10349000880D991DAA1DBB1D8A8F9B8FAC8FBD8F78
:1034A00025E0000F111F2A95E1F701501E4F012F53
:1034B00011270695800F911FA11DB11D8E879F8733
:1034C000A88BB98B009180021091810230E020E03E
:1034D0000115110541F400918D0210918E02209189
:1034E0008F0230919002C81AD90AEA0AFB0AC00E6C
:1034F000D11EE21EF31E04C0F694E794D794C7943D
:10350000EA95D2F7C986DA86EB86FC868CE025EF51
:10351000C2162FE0D206E104F10440F085EFC81690
:103520008FEFD806E104F10420F480E18F8B81E075
:1035300006CF8091990290919A02A0919B02B0913E
:103540009C028A8F9B8FAC8FBD8F80E2EFCF8091E2
:103550009D0490919E04891B990B089590919E045F
:1035600080919D042FEF3FEF981748F4E92FF0E08A
:10357000E156FB4F208130E09F5F90939E04C9018C
:103580000895E0919E0480919D04E81730F4F0E0E6
:10359000E156FB4F808190E008958FEF9FEF0895F3
:1035A0000895CF93DF931F92CDB7DEB76983209143
:1035B00079042223F9F020917A04203258F021E096
:1035C00030E0FC013383228390E080E00F90DF91B4
:1035D000CF91089580917B04E82FF0E0E458FB4FF1
:1035E000998190838F5F80937B0480937A0481E03C
:1035F00090E0ECCF61E0CE0101960E94F41BF7CF82
:10360000CF92DF92EF92FF920F931F93CF93DF93AE
:103610007C01CB018A0120917904222389F0EB01FE
:103620006B01C40ED51ECC15DD0569F06991D7017B
:10363000ED91FC910190F081E02DC7010995F3CF48
:10364000642F0E94F41BC801DF91CF911F910F914D
:10365000FF90EF90DF90CF90089581E08093790400
:1036600060939C0410927B0410927A0408950C9449
:103670002D1B0F93062F21E040917A046CE774E034
:1036800080919C040E940A1D10927B0410927A047F
:10369000109279040F9108954F925F926F927F92EA
:1036A000AF92BF92CF92EF92FF920F931F93CF935F
:1036B000DF935C01F62ED42F28013901EE2019F199
:1036C0000E942D1BCE2DC43008F0C3E0C150B8F0CD
:1036D00028E0C29FC0011124A301920104C05695A5
:1036E0004795379527958A95D2F7B901D501ED9180
:1036F000FC910190F081E02DC5010995E7CF60E0D4
:10370000C5010E94391B4D2FD13208F040E22C2D0B
:103710006FE974E08F2D0E94371C10929E048093F5
:103720009D04DF91CF911F910F91FF90EF90CF906B
:10373000BF90AF907F906F905F904F900895CF9221
:10374000EF920F931F93C22EE12C00E010E098013E
:103750000E944C1B1F910F91EF90CF90089521E094
:103760000C949F1B21E00C949F1B61E00C94391B6F
:10377000EDE6F4E01382128288EE93E0A0E0B0E080
:1037800084839583A683B78386EC91E091838083BD
:1037900008951092140581E080931205109211058E
:1037A00061E081E10E94412561E080E10E944125C4
:1037B000E9EBF0E080818E7F808380818D7F808344
:1037C0008DEF8093B80085E48093BC000895ECEB06
:1037D000F0E080818A7B808360E081E10E94412566
:1037E00060E080E10C9441252091E104260F33270D
:1037F000331F21323105ECF420911405FC0190E0D7
:1038000080E0243069F082E00895A091E1042191E4
:10381000AC014D515B4FA40FB52FB11D2C930196F8
:10382000861798F38091E104680F6093E10480E0CB
:10383000089581E0089585EC8093BC0010921405F2
:103840000895CF93DF9391E090930C05882361F066
:10385000C091B800D091BA000E94E71B0E94C91B1A
:10386000D093BA00C093B800DF91CF9108954F92E2
:103870005F926F927F92BF92CF92DF92EF92FF9210
:103880000F931F93CF93DF93D82F8B01C42FB22EAA
:10389000413208F099C00E9436246B017C0180916E
:1038A000140581116CC081E080931405B09212055B
:1038B0009FEF9093BF0410930605009305051092A7
:1038C00004059C0F909303058093130580911305C5
:1038D000DD0FD82BD093130580911105813009F0AD
:1038E00075C0109211050E9436246B017C018091F5
:1038F00013058093BB0080910D0590910E05A0915A
:103900000F05B0911005892B8A2B8B2BA1F00E94FB
:10391000362400910D0510910E0520910F05309170
:1039200010056C197D098E099F09061717072807CE
:10393000390708F445C08091BC0083FDD8CF85ECE1
:103940008093BC000E9436246B017C018091140599
:103950008130F1F1809104058C1710F4C0910405B9
:103960008C2FDF91CF911F910F91FF90EF90DF90FF
:10397000CF90BF907F906F905F904F90089580910F
:103980000D0590910E05A0910F05B0911005892BA2
:103990008A2B8B2B09F483CF0E94362440900D058F
:1039A00050900E0560900F05709010056C197D0900
:1039B0008E099F09461657066806790608F06FCFEC
:1039C00080910B050E94211CC0E0CACF85EEB8CFC4
:1039D00080910D0590910E05A0910F05B0911005F5
:1039E000892B8A2B8B2B09F4B1CF0E9436240091AE
:1039F0000D0510910E0520910F05309110056C19E1
:103A00007D098E099F09061717072807390708F04F
:103A10009DCFD6CF4F925F926F927F92AF92BF921F
:103A2000CF92DF92EF92FF920F931F93CF93DF938A
:103A3000413208F0CBC0D22F142F5B01C82F0E9457
:103A400036246B017C0180911405811166C082E0EF
:103A500080931405009312058FEF8093BF04B092FA
:103A60000605A09205051092040510930305109217
:103A7000130580911305CC0FC82BC09313058091BB
:103A80001105813009F07EC0109211058091130557
:103A90008093BB0080910D0590910E05A0910F05BC
:103AA000B0911005892B8A2B8B2BA1F00E94362414
:103AB00000910D0510910E0520910F053091100514
:103AC0006C197D098E099F09061717072807390702
:103AD00008F444C08091BC0083FDD8CF85EC80936E
:103AE000BC000E9436246B017C01DD2329F080910B
:103AF0001405823009F448C08091BF048F3F09F457
:103B000067C08091BF04803209F464C08091BF0413
:103B1000803309F461C084E026C080910D05909146
:103B20000E05A0910F05B0911005892B8A2B8B2BC8
:103B300009F489CF0E94362440900D0550900E055F
:103B400060900F05709010056C197D098E099F0912
:103B5000461657066806790608F075CF80910B0562
:103B60000E94211C85E0DF91CF911F910F91FF9062
:103B7000EF90DF90CF90BF90AF907F906F905F906D
:103B80004F90089585EEABCF80910D0590910E0575
:103B9000A0910F05B0911005892B8A2B8B2B09F46E
:103BA000A4CF0E94362400910D0510910E0520919E
:103BB0000F05309110056C197D098E099F090617B4
:103BC00017072807390708F090CFC8CF81E0CBCF7F
:103BD00080E0C9CF82E0C7CF83E0C5CF85ED809379
:103BE000BC0080910D0590910E05A0910F05B0913C
:103BF00010050796A11DB11D23E0B695A7959795D1
:103C000087952A95D1F72091BC0024FD03C010921E
:103C10001405089540910D0550910E0560910F0512
:103C200070911005452B462B472B69F30097A10592
:103C3000B10541F023E02A95F1F700000197A109B1
:103C4000B109E1CF80910B050C94211C1F920F92BA
:103C50000FB60F9211240BB60F922F933F934F93F1
:103C60005F936F937F938F939F93AF93BF93EF93E4
:103C7000FF938091B900887F803609F44EC008F028
:103C800041C0883209F4AAC028F5803109F49EC0E9
:103C9000C8F4882309F407C1883009F497C0FF915C
:103CA000EF91BF91AF919F918F917F916F915F91B4
:103CB0004F913F912F910F900BBE0F900FBE0F9021
:103CC0001F901895883109F489C0803241F780939C
:103CD000BF0415C0803409F4A6C048F48033B9F39A
:103CE0008833E9F68093BF040E941B1CD8CF80352F
:103CF00009F489C0883509F49EC0883481F60E9491
:103D0000EE1DCDCF883909F494C038F5883729F0F5
:103D100050F4883611F0803711F683E08093140553
:103D20001092C00457C0883809F483C0803919F054
:103D3000803809F0B4CF8091C004803208F079C097
:103D4000E091C00481E08E0F8093C0048091BB009D
:103D5000F0E0EF53FB4F80833DC0803B39F0E0F44F
:103D6000803A09F485C0883A09F099CF84E08093BD
:103D700014051092E2041092E104E0910905F0911B
:103D80000A0509958091E10481110FC081E08093BB
:103D9000E1041092E30409C0803C09F482C0883C2D
:103DA00009F47FC0883B09F07ACFE091E20481E01A
:103DB0008E0F8093E204F0E0ED51FB4F8081809301
:103DC000BB009091E2048091E10431C08091130521
:103DD0008093BB0085EC8093BC0061CF909104057B
:103DE000809103059817B8F5809105059091060517
:103DF000E091040521E02E0F20930405E80FF92F30
:103E0000F11D8081E5CF2091050530910605E091F7
:103E1000040581E08E0F809304058091BB00E20FC2
:103E2000F32FF11D8083909104058091030598176D
:103E300088F285E8D0CF2091050530910605E09104
:103E4000040581E08E0F809304058091BB00E20F92
:103E5000F32FF11D808380911205811150CF81E0F5
:103E60008093110584EA8093BC001092140517CF4B
:103E70000E941B1C8091C004803230F4E091C00489
:103E8000F0E0EF53FB4F10826091C00470E0E091CE
:103E90000705F091080581EC94E009951092C004A3
:103EA000FECE85ECE0CF1092BF0429CFCF93CFB7E1
:103EB000F89480911805811127C0E0EEF0E084911C
:103EC000E0ECF0E09491E82FF0E0EE0FFF1FEA5FE6
:103ED000FE4FA591B491EC91E92321F461E084E0D7
:103EE0000E94412561E084E00E9405258CB5806137
:103EF0008CBD8CB580648CBD61E087E00E94052597
:103F000061E085E00E940525809118058F5F809310
:103F10001805CFBFCF910895FC01918D228D892F77
:103F200090E0805C9F4F821B91098F7399270895C1
:103F3000FC01918D828D981731F0828DE80FF11D73
:103F4000858D90E008958FEF9FEF0895FC01918D8E
:103F5000828D981761F0A28DAE0FBF2FB11D5D96B7
:103F60008C91928D9F5F9F73928F90E008958FEF59
:103F70009FEF0895FC01538D448D252F30E0842F51
:103F800090E0821B930B541710F0CF960895019781
:103F900008958EE191E2892B49F080E090E0892B31
:103FA00029F00E941E2181110E94000080E090E013
:103FB000892B49F080E090E0892B29F00E940000D5
:103FC00081110C9400000895FC01A48DA80FB92F55
:103FD000B11DA35ABF4F2C91848D90E001968F7331
:103FE0009927848FA689B7892C93A089B1898C9150
:103FF00080648C93938D848D981306C00288F38916
:10400000E02D80818F7D80830895CF93DF93EC0135
:10401000888D8823B9F0AA89BB89E889F9898C91B0
:1040200085FD03C0808186FD0DC00FB607FCF7CF6C
:104030008C9185FFF2CF808185FFEDCFCE010E946C
:10404000E41FE9CFDF91CF910895EF92FF920F9394
:104050001F93CF93DF93EC0181E0888F9B8D8C8D34
:10406000981316C0E889F989808185FF11C0EE890F
:10407000FF896083E889F98980818064808381E099
:1040800090E0DF91CF911F910F91FF90EF900895F5
:10409000F62E0B8D10E00F5F1F4F0F731127E02ED0
:1040A0008C8D8E110CC00FB607FCFACFE889F98908
:1040B000808185FFF5CFCE010E94E41FF1CFEB8D0B
:1040C000EC0FFD2FF11DE35AFF4FF0820B8FEA89B1
:1040D000FB8980818062D2CFCF92DF92EF92FF92F4
:1040E0001F93CF93DF93EC016A017B01122F60E9EC
:1040F00070ED83E090E0A70196010E9470252150A9
:104100003109410951095695479537952795E88911
:10411000F98982E08083211580E1380798F0E889E9
:10412000F989108268E478EE81E090E0A7019601B9
:104130000E94702521503109410951095695479532
:1041400037952795EC85FD853083EE85FF852083A7
:10415000188EEC89FD891083EA89FB898081886942
:104160008083EA89FB8980818F7D8083DF91CF9175
:104170001F91FF90EF90DF90CF9008951F920F92C4
:104180000FB60F9211240BB60F922F938F939F931C
:10419000EF93FF93E0912905F0912A058081E0914A
:1041A0002F05F091300582FD1DC090818091320570
:1041B0008F5F8F7320913305821741F0E0913205B4
:1041C000F0E0E75EFA4F958F80933205FF91EF9113
:1041D0009F918F912F910F900BBE0F900FBE0F905C
:1041E0001F9018958081F2CF1F920F920FB60F92F9
:1041F00011240BB60F922F933F934F935F936F93BE
:104200007F938F939F93AF93BF93EF93FF9389E136
:1042100095E00E94E41FFF91EF91BF91AF919F91B4
:104220008F917F916F915F914F913F912F910F905F
:104230000BBE0F900FBE0F901F90189589E195E06F
:104240000E948C1F21E0892B09F420E0822F089521
:10425000E9E1F5E01382128288EE93E0A0E0B0E09D
:1042600084839583A683B78388ED91E091838083CF
:1042700085EC90E09587848784EC90E0978786872B
:1042800080EC90E0918B808B81EC90E0938B828B23
:1042900082EC90E0958B848B86EC90E0978B868BFC
:1042A000118E128E138E148E0895AF92BF92CF92FC
:1042B000DF92EF92FF920F931F93CF93DF936C01E6
:1042C0007B018B01040F151FEB015E01AE18BF08C7
:1042D000C017D10759F06991D601ED91FC91019079
:1042E000F081E02DC6010995892B79F7C501DF9191
:1042F000CF911F910F91FF90EF90DF90CF90BF90E3
:10430000AF900895FB0101900020E9F73197AF01CC
:10431000461B570BDC01ED91FC910280F381E02DEF
:104320000994DB0114964D915C9115976D917C91E8
:10433000DC01ED91FC910280F381E02D099468E4A9
:1043400071E00C9482210F931F93CF93DF93EC01C4
:104350000E9491218C01CE010E949F21800F911F0C
:10436000DF91CF911F910F9108950F931F93CF93DA
:10437000DF938C01D0E0C0E06115710519F00E9457
:104380008221EC01C8010E949F218C0F9D1FDF91AB
:10439000CF911F910F910895FC01808191810C9420
:1043A0005126CF93DF93EC0188819981009711F01A
:1043B0000E945126198218821D821C821B821A8239
:1043C000DF91CF9108950F931F93CF93DF93EC016B
:1043D0008B016F5F7F4F888199810E94DA26009759
:1043E00051F0998388831B830A8381E0DF91CF9109
:1043F0001F910F91089580E0F9CFCF93DF93EC01E7
:1044000088819981892B49F08A819B81861797073A
:1044100020F081E0DF91CF910895CE010E94E32149
:104420008823C1F38C819D81892B99F7E881F981DB
:104430001082EFCFEF92FF920F931F93CF93DF93F2
:10444000EC017B018A01BA010E94FD2181110BC0A0
:10445000CE010E94D121CE01DF91CF911F910F910A
:10446000FF90EF9008951D830C83B7018881998197
:104470000E94DC27F0CFFC0111821082138212828D
:10448000158214826115710551F0FB010190002025
:10449000E9F73197AF01461B570B0C941A22089588
:1044A000FB0101900020E9F73197AF01461B570B44
:1044B0000C941A220F931F93CF93DF93CDB7DEB7DF
:1044C00029970FB6F894DEBF0FBECDBF8C01862FA3
:1044D000F80111821082138212821582148250E038
:1044E000BE016F5F7F4F90E00E943528BE016F5F75
:1044F0007F4FC8010E94502229960FB6F894DEBF64
:104500000FBECDBFDF91CF911F910F9108950F93F3
:104510001F93CF93DF93CDB7DEB762970FB6F894B2
:10452000DEBF0FBECDBF8C01CB01F801118210821E
:10453000138212821582148250E0BE016F5F7F4F9A
:104540000E94F227BE016F5F7F4FC8010E94502278
:1045500062960FB6F894DEBF0FBECDBFDF91CF914C
:104560001F910F9108950F931F93CF93DF93CDB7B2
:10457000DEB761970FB6F894DEBF0FBECDBF8C01DA
:10458000CB01F801118210821382128215821482EB
:1045900050E0BE016F5F7F4F0E943528BE016F5F04
:1045A0007F4FC8010E94502261960FB6F894DEBF7B
:1045B0000FBECDBFDF91CF911F910F9108950F9343
:1045C0001F93CF93DF93CDB7DEB7A1970FB6F894C3
:1045D000DEBF0FBECDBF8C01CB01BA01F801118245
:1045E0001082138212821582148230E0AE014F5F76
:1045F0005F4F0E940828BE016F5F7F4FC8010E9475
:104600005022A1960FB6F894DEBF0FBECDBFDF914A
:10461000CF911F910F910895CF93DF93EC01FB0190
:104620008617970749F0608171816115710541F026
:10463000448155810E941A22CE01DF91CF910895C5
:104640000E94D121F9CFFC011182108213821282C3
:10465000158214820C940C23EF92FF920F931F93F8
:10466000CF93DF936115710541F480E0DF91CF9125
:104670001F910F91FF90EF90089541155105B1F0F2
:104680007B01EC010C811D81040F151FB8010E94F4
:10469000FD21882351F3288139818C819D81B701C7
:1046A000820F931F0E94DC271D830C8381E0DECFE5
:1046B000FB0144815581608171810C942C2361152B
:1046C000710551F0FB0101900020E9F73197AF012E
:1046D000461B570B0C942C2380E00895CF93DF9357
:1046E000EC01FB0144815581608171810E942C2382
:1046F000811103C0CE010E94D121CE01DF91CF9163
:104700000895CF93DF93EC016115710539F4CE0163
:104710000E94D121CE01DF91CF910895FB0101903C
:104720000020E9F73197AF01461B570B0E942C235D
:10473000882369F3EFCFCF93DF93DC011496ED91DB
:10474000FC916E177F0728F54115510511F19F0166
:10475000261B370B4217530708F49A01DB01EC01C3
:1047600088819981E21BF30BFD83EC83AF01461B2B
:10477000570B260F371FBC01620F731F8A0F9B1F39
:104780000E94E327E881F9818C819D81E80FF91F60
:104790001082DF91CF9108954FEF5FEF0C949B2330
:1047A00008950E949F240E94D0230E947A04C9EC9D
:1047B000DFE10E9496012097E1F30E94C91FF9CF23
:1047C0001F920F920FB60F9211242F933F938F9346
:1047D0009F93AF93BF938091BB059091BC05A0912F
:1047E000BD05B091BE053091BA0520E3230F2D37EA
:1047F00068F123EB230F4196A11DB11D2093BA054B
:104800008093BB059093BC05A093BD05B093BE05F6
:104810008091B6059091B705A091B805B091B90502
:104820000196A11DB11D8093B6059093B705A09385
:10483000B805B093B905BF91AF919F918F913F910A
:104840002F910F900FBE0F901F9018954096A11DAD
:10485000B11DD4CF2FB7F8946091BB057091BC0502
:104860008091BD059091BE052FBF08953FB7F89484
:104870008091B6059091B705A091B805B091B905A2
:1048800026B5A89B05C02F3F19F00196A11DB11DAB
:104890003FBFBA2FA92F982F8827BC01CD01620FE7
:1048A000711D811D911D46E0660F771F881F991F9E
:1048B0004A95D1F708958F929F92AF92BF92CF926F
:1048C000DF92EF92FF926B017C010E9436244B0134
:1048D0005C01C114D104E104F104E9F00E946F25E8
:1048E0000E943624681979098A099B09683E734039
:1048F0008105910570F321E0C21AD108E108F108A1
:1049000088EE880E83E0981EA11CB11CC114D1044E
:10491000E104F10429F7FF90EF90DF90CF90BF9072
:10492000AF909F908F9008958A31910538F0469707
:1049300096958795969587950197F1F708957894C0
:1049400084B5836084BD85B5836085BDEEE6F0E007
:1049500080818160808382E080938100E0E8F0E0E4
:10496000808181608083E1EBF0E0808184608083DE
:10497000E0EBF0E0808181608083E1E9F0E080811C
:1049800083608083E0E9F0E080818160808383E858
:1049900080937A001092C100089582508A3088F581
:1049A000E82FF0E0EA52FB4D0C949225FE240225FC
:1049B000E024E62401250125EA24F024F424FA2445
:1049C000809180008F77809380000895809180008F
:1049D0008F7DF9CF8091B0008F778093B0000895DC
:1049E0008091B0008F7DF9CF809190008F77809378
:1049F00090000895809190008F7DF9CF84B58F77D6
:104A000084BD089584B58F7DFBCFCF93DF9390E075
:104A1000FC01E454FF4F249184529F4FFC01849188
:104A20008823C9F090E0880F991FFC01EA5FFE4FD0
:104A3000A591B491FC01E450FF4FC591D49161114F
:104A40000DC09FB7F8948C91209582238C93888118
:104A5000282328839FBFDF91CF910895623051F4BE
:104A60009FB7F8943C91822F809583238C93E881A3
:104A70002E2BEFCF8FB7F894EC912E2B2C938FBF6A
:104A8000EACF1F93CF93DF93282F30E0F901E4564C
:104A9000FF4F8491F901E454FF4FD491F901E4529E
:104AA000FF4FC491CC23A9F0162F81110E94CD2471
:104AB000EC2FF0E0EE0FFF1FE450FF4FA591B491F3
:104AC0008FB7F894EC91111108C0D095DE23DC93D8
:104AD0008FBFDF91CF911F910895DE2BF8CF0895FE
:104AE000A1E21A2EAA1BBB1BFD010DC0AA1FBB1FF2
:104AF000EE1FFF1FA217B307E407F50720F0A21B64
:104B0000B30BE40BF50B661F771F881F991F1A94D0
:104B100069F760957095809590959B01AC01BD01FA
:104B2000CF010895EE0FFF1F0024001C0BBE07905D
:104B3000F691E02D09940E94A625A59F900DB49FA3
:104B4000900DA49F800D911D11240895A29FB00186
:104B5000B39FC001A39F700D811D1124911DB29FB1
:104B6000700D811D1124911D08950F931F93CF93F4
:104B7000DF938230910510F482E090E0E091C1056E
:104B8000F091C20530E020E0B0E0A0E0309799F469
:104B90002115310509F44AC0281B390B2430310591
:104BA000D8F58A819B816115710589F1FB01938399
:104BB0008283FE0111C04081518102811381481717
:104BC0005907E0F04817590799F4109761F01296C9
:104BD0000C93129713961C933296CF01DF91CF91CD
:104BE0001F910F9108950093C1051093C205F4CF52
:104BF0002115310551F04217530738F0A901DB01A7
:104C00009A01BD01DF01F801C1CFEF01F9CF909307
:104C1000C2058093C105CDCFFE01E20FF31F819342
:104C200091932250310939832883D7CF2091BF0532
:104C30003091C005232B41F42091020130910301F2
:104C40003093C0052093BF052091000130910101F0
:104C50002115310541F42DB73EB740910401509123
:104C60000501241B350BE091BF05F091C005E2174B
:104C7000F307A0F42E1B3F0B2817390778F0AC017F
:104C80004E5F5F4F2417350748F04E0F5F1F50935C
:104C9000C0054093BF05819391939FCFF0E0E0E082
:104CA0009CCFCF93DF930097E9F0FC0132971382FA
:104CB0001282A091C105B091C205ED0130E020E063
:104CC0001097A1F420813181820F931F2091BF059D
:104CD0003091C0052817390709F061C0F093C0056D
:104CE000E093BF05DF91CF910895EA01CE17DF076A
:104CF000E8F54A815B819E0141155105B1F7E90153
:104D0000FB83EA8349915991C40FD51FEC17FD0726
:104D100061F4808191810296840F951FE901998346
:104D20008883828193819B838A83F0E0E0E01296FE
:104D30008D919C9113970097B9F52D913C91119706
:104D4000CD010296820F931F2091BF053091C005BF
:104D50002817390739F6309751F51092C20510928D
:104D6000C105B093C005A093BF05BCCFD383C28358
:104D700040815181840F951FC817D90761F44E5F98
:104D80005F4F88819981480F591F518340838A81E1
:104D90009B81938382832115310509F0B0CFF09375
:104DA000C205E093C1059ECFFD01DC01C0CF138297
:104DB0001282D7CF4F925F926F927F928F929F9283
:104DC000AF92BF92CF92DF92EF92FF920F931F9319
:104DD000CF93DF938C01009799F4CB01DF91CF91B2
:104DE0001F910F91FF90EF90DF90CF90BF90AF9009
:104DF0009F908F907F906F905F904F900C94B5250F
:104E0000FC01E60FF71F9C0122503109E217F3075E
:104E100008F4AEC0D901CD91DC911197C617D70720
:104E200020F1C530D10578F0CE0104978617970799
:104E300050F0C61BD70B2297C193D1936D937C93EF
:104E4000CF010E945126C801DF91CF911F910F9190
:104E5000FF90EF90DF90CF90BF90AF909F908F909A
:104E60007F906F905F904F9008955B01AC1ABD0AE0
:104E70004C018C0E9D1EA091C105B091C205512C14
:104E8000412CF12CE12C109731F58091BF059091C8
:104E9000C0058815990509F05CC04616570608F04C
:104EA00058C08091000190910101009741F48DB7A5
:104EB0009EB74091040150910501841B950BE817A2
:104EC000F90708F055C0F093C005E093BF05F9015C
:104ED00071836083B8CF8D919C91119712966C90DD
:104EE000129713967C901397A815B90559F56C0184
:104EF00042E0C40ED11CCA14DB0420F1AC014A19F3
:104F00005B09DA011296159780F0628273825183F1
:104F10004083D9016D937C93E114F10471F0D701C2
:104F20001396FC93EE9312978ECF22968C0F9D1FB3
:104F3000F90191838083F301EFCFF093C205E093F1
:104F4000C10581CF4816590608F42C017D01D30113
:104F50009ACFCB010E94B5257C01009749F0AE01A4
:104F6000B8010E94C827C8010E94512687016BCF53
:104F700010E000E068CFFB01DC0104C08D910190DE
:104F8000801921F441505040C8F7881B990B0895AF
:104F9000FB01DC0102C001900D9241505040D8F756
:104FA0000895FC018191861721F08823D9F799276C
:104FB00008953197CF010895FB01DC0101900D9216
:104FC0000020E1F70895FB01DC014150504048F01A
:104FD00001900D920020C9F701C01D924150504030
:104FE000E0F708954532510520F4423010F00C945A
:104FF000FD27FB011082CB010895BB274A3031F415
:10500000992322F4BDE2909581959F4F0C944128FD
:105010002532310520F4223010F00C941328FA01C7
:105020001082CA010895BB27FA01A62F62177105E5
:1050300081059105330B30FB66F0AA27660F771FB9
:10504000881F991FAA1FA21710F0A21B6395385042
:10505000A9F7A05DAA3308F0A95DA19336F7B111B5
:10506000B1931082CA010C945A284532510520F49C
:10507000423010F00C944028FB011082CB010895BF
:10508000BB27FB015527AA27880F991FAA1FA41722
:1050900010F0A41B83955051B9F7A05DAA3308F016
:1050A000A95DA193009779F7B111B1931192CB014A
:1050B0000C945A28DC01FC01672F71917723E1F7EA
:1050C000329704C07C916D9370836291AE17BF07D5
:1050D000C8F3089510E0CEE8D0E004C0FE010E94BD
:0E50E00092252196CF38D107C9F7F894FFCF5B
:1050EE000000C305800003FF00FFFFFFFF53504188
:1050FE004345444F53303300646431346334633278
:10510E003437323062626666303865306537313832
:10511E0064396163393563316136633435616330C7
:10512E00002454494D452C000D0A0024484953547F
:10513E002C002343617264206661696C65642C20C7
:10514E006F72206E6F742070726573656E740023BB
:10515E006572726F72206F70656E696E6720646122
:10516E0074616C6F672E74787400234376616B2EB6
:10517E002E2E0023486D6D6D2E2E2E0024444F537F
:10518E002C0000000000CE07E407CB070108B4088E
:10519E0020082A082F0000000000ED155521CB072E
:1051AE00CC0E00000000D11A001BCB07D01AA71A94
:1051BE00AE1AC11A0000000025205521BA1F052085
:0651CE008C1FA61F981FB4
:00000001FF
