:020000040000FA
:100000000C948F000C94B9000C94B9000C94B900B6
:100010000C94B9000C94B9000C94B9000C94B9007C
:100020000C94B9000C94B9000C94B9000C94B9006C
:100030000C94B9000C94B9000C94B9000C94B9005C
:100040000C94B9000C94B9000C9468220C94B9007B
:100050000C94461F0C947C1F0C94B9000C94B900AE
:100060000C94B9000C94B9000C94B41C0C94B90015
:100070000C94B9000C94B9000C94B9000C94B9001C
:100080000C94B9000C94B9000C94B9007C3C3E5E11
:100090002B3D3F2F5B5D3B2C2A225C0000000002C1
:1000A00003000A0B0000000005040908000000001E
:1000B0000000000000000000000000000102040831
:1000C0001020408001020408102040800102040832
:1000D0001020408001020408102040800202020229
:1000E00002020202040404040404040403030303DC
:1000F00003030303010101010101010100002200CA
:10010000250028002B0000002100240027002A00E1
:10011000CB00C407B70BDB0ECD1BB01FE3001124CF
:100120001FBECFEFD0E4DEBFCDBF11E0A0E0B1E055
:10013000E6E0FEE400E00BBF02C007900D92A83E8F
:10014000B107D9F725E0A8EEB1E001C01D92AD3DA1
:10015000B207E1F710E0CEE8D0E004C02197FE013D
:100160000E941E24C838D107C9F70E9459220C9456
:10017000F6260C940000DC01ED91FC910190F081D9
:10018000E02D0994982F92959F708F702AE0929F8E
:10019000800D112408956DE071E081E192E00E94EC
:1001A000C32064E171E08BE092E00E94C32068E12B
:1001B00071E085E092E00E94C3206AE471E08FEF75
:1001C00091E00C94C3208FEF91E00E94542085E0D1
:1001D00092E00E9454208BE092E00E94542081E142
:1001E00092E00C945420CF93DF9361E570E08FE6AA
:1001F00094E00E944C1B70E060E08FE694E00E9467
:10020000BB008FE694E00E94CA1B46E050E061E527
:1002100070E08FE694E00E94C71B8FE694E00E9496
:10022000C31A0E94C2008093EA018FE694E00E9404
:10023000C31A8F770E94C200D82F8FE694E00E94E5
:10024000C31A8F770E94C200C82F8FE694E00E94E5
:10025000C31A0E94C20090E0B0E0A0E08093EB01DE
:100260009093EC01A093ED01B093EE018FE694E042
:100270000E94C31A0E94C20024E6829FC00111247A
:10028000092E000CAA0BBB0B4091EB015091EC0125
:100290006091ED017091EE01840F951FA61FB71FAD
:1002A0008093EB019093EC01A093ED01B093EE01EC
:1002B0008FE694E00E94C31A0E94C20040E157E218
:1002C000849F9001859F300D1124032E000C440B58
:1002D000550B8091EB019091EC01A091ED01B09153
:1002E000EE01280F391F4A1F5B1FA0E1BEE00E94EC
:1002F0002724AB01BC012CE3C29FC0011124092EAD
:10030000000CAA0BBB0B8D0F911DA11DB11D840FFD
:10031000951FA61FB71F8093EB019093EC01A0934C
:10032000ED01B093EE01DF91CF9108958F929F92EE
:10033000AF92BF92CF92DF92EF92FF920F931F93F3
:10034000CF93DF93CDB7DEB7C152D4400FB6F89448
:10035000DEBF0FBECDBFFE0131968E010F5F1B4F7A
:100360007F0111921192E017F107D9F780910601F0
:1003700020E4829FC0011124816180937C0062E3AC
:1003800070E080E090E00E94E32210927B00809178
:100390007A00806280937A0080917A0080648093F2
:1003A0007A0080917A00846080937A0080917A004C
:1003B0008D7F80937A0080917A008E7F80937A007F
:1003C00080917A00806180937A0080917A0084FF26
:1003D000FCCF80917A00806180937A0080917800D0
:1003E0008093F401809179008093F301809106015C
:1003F00050E4859FC0011124806180937C0010929D
:100400007B0080917A00806280937A0080917A00EC
:10041000806480937A0080917A00846080937A006F
:1004200080917A008D7F80937A0080917A008E7F10
:1004300080937A008091F301E0E88E9FC00111243F
:100440002091F40130E035952795822B932B8F3F37
:10045000910511F00CF0FCC093959093F2018093FC
:10046000F1018091F1019091F2019093F601809356
:10047000F50181E085B980917A00806180937A00EE
:1004800080917A0084FFFCCF8FE984B984E690E004
:100490000E941C238EE984B980917A008061809348
:1004A0007A0080917A0084FFFCCF8FE984B9000044
:1004B00000000000000000008EE984B980917A00FD
:1004C000806180937A000E94F30020EB33EBD12C03
:1004D000C12C6FE97EE980917A0084FFFCCF000097
:1004E0000000000000000000000064B900000000EF
:1004F00000000000000074B980917A008061809350
:100500007A00409178004093F401809179008093C3
:10051000F301F0E88F9FC001112450E055954795F5
:10052000842B952B8F3F910511F00CF093C0939580
:100530009093F2018093F1018091F1019091F20189
:10054000E091EF01F091F001E817F90708F084C09D
:100550009093F0018093EF015FEFC51AD50A215007
:10056000310909F0B8CF6AE471E0CE01845E9B4F97
:100570000E94C32061E471E0CE01845E9B4F0E9423
:10058000E7216091FB017091FC014AE0C8010E94E3
:100590003B21B801CE01845E9B4F0E94E021C8013F
:1005A0000E94542066E471E0CE01845E9B4F0E945D
:1005B000E7214091EB015091EC016091ED017091C8
:1005C000EE012AE0C8010E946721B801CE01845ED5
:1005D0009B4F0E94E021C8010E94542061E971E014
:1005E000CE01845E9B4F0E94E7214AE06091EA01C0
:1005F000C8010E94E220B801CE01845E9B4F0E9498
:10060000E021C8010E94542068E471E0CE01845EBC
:100610009B4F0E94E7210E94F30020910701309137
:100620000801C9010496FC01EE0FFF1FEE0DFF1D2E
:10063000812C912C540124503F4F82179307D0F402
:1006400041915191840E951EA11CB11C0196F5CFCC
:100650009A9503CF9A956CCFEE0FFF1FEE0DFF1DFD
:10066000808191810196918380831092F001109294
:10067000EF0175CF6BE471E0CE01845E9B4F0E9469
:10068000E7216091FB017091FC014AE0C8010E94E2
:100690003B21B801CE01845E9B4F0E94E021C8013E
:1006A0000E94542066E471E0CE01845E9B4F0E945C
:1006B000E7214091EB015091EC016091ED017091C7
:1006C000EE012AE0C8010E946721B801CE01845ED4
:1006D0009B4F0E94E021C8010E94542061E971E013
:1006E000CE01845E9B4F0E94E7214AE06091EA01BF
:1006F000C8010E94E220B801CE01845E9B4F0E9497
:10070000E021C8010E94542066E471E0CE01845EBD
:100710009B4F0E94E7214AE0B601C8010E943B219D
:10072000B801CE01845E9B4F0E94E021C8010E9467
:10073000542066E471E0CE01845E9B4F0E94E72165
:100740002AE0B501A401C8010E946721B801CE01C9
:10075000845E9B4F0E94E021C8010E94542066E401
:1007600071E0CE01845E9B4F0E94E7216091F5010C
:100770007091F6014AE0C8010E943B21B801CE0108
:10078000845E9B4F0E94E021C8010E94542080910A
:100790000701909108016C01E1E0CE1AD108815067
:1007A0009048880F991FE80EF91E809107019091DB
:1007B000080185509F4FC816D906E0F466E471E041
:1007C000CE01845E9B4F0E94E721F70161917191F8
:1007D0007F014AE0C8010E943B21B801CE01845E3E
:1007E0009B4F0E94E021C8010E945420FFEFCF1AC6
:1007F000DF0ADBCF8091FB019091FC010196909381
:10080000FC018093FB018EEB84B98FE085B964E035
:100810008AE192E00E94010A81111FC062E571E045
:1008200083E395E00E943D20CE01845E9B4F0E94B1
:100830005420CF5DDB4F0FB6F894DEBF0FBECDBFA7
:10084000DF91CF911F910F91FF90EF90DF90CF90AC
:10085000BF90AF909F908F9008954091FF0150916D
:10086000000223E16AE172E0C8010E94210BC80185
:100870000E94F5088823B9F1BE01645E7B4FC80170
:100880000E942B20C8010E94E3088EE984B981E010
:1008900085B96BE470E0CE01845E9B4F0E945422C8
:1008A000BE01645E7B4F83E395E00E942B2061E0F4
:1008B00087E10E94CD236AE070E080E090E00E9432
:1008C000E32260E087E10E94CD238091FB019091BB
:1008D000FC0189309F4C08F4A7CFE091E801F0912A
:1008E000E9010995A1CF6FE671E083E395E00E94ED
:1008F0003D20CBCFEF92FF920F931F93CF93DF93C7
:10090000CDB7DEB7C254D1090FB6F894DEBF0FBE23
:10091000CDBF61E570E08FE694E00E944C1B63E27E
:100920008FE694E00E94E61A60E08FE694E00E9471
:10093000E61A60E08FE694E00E94E61A65E08FE632
:1009400094E00E94E61A60E08FE694E00E94E61AC6
:1009500060E08FE694E00E94E61A67E98FE694E093
:100960000E94E61A60E08FE694E00E94E61A60E0DA
:100970008FE694E00E94E61A8FE694E00E94CA1B7C
:1009800061E570E08FE694E00E944C1B6FE270E03E
:100990008FE694E00E94BB006CE270E08FE694E08A
:1009A0000E94BB008FE694E00E94CA1B61E570E0E4
:1009B0008FE694E00E944C1B68E270E08FE694E0C2
:1009C0000E94BB0067E970E08FE694E00E94BB00E4
:1009D0008FE694E00E94CA1B61E570E08FE694E028
:1009E0000E944C1B60E08FE694E00E94E61A60E0F3
:1009F0008FE694E00E94E61A60E08FE694E00E94A1
:100A0000E61A60E08FE694E00E94E61A60E08FE666
:100A100094E00E94E61A60E08FE694E00E94E61AF5
:100A200060E08FE694E00E94E61A8FE694E00E9470
:100A3000CA1B26E040E855E260E070E083E395E001
:100A40000E94EE1E6AE871E083E395E00E943D207B
:100A50008091060120E4829FC0011124806180936F
:100A60007C0010927B0080917A00806280937A00F3
:100A700080917A00806480937A0080917A0084600B
:100A800080937A0080917A008D7F80937A008091A4
:100A90007A008E7F80937A0061E080E00E9491234B
:100AA0008EE984B915B88CEF81B912B89CEE97B96C
:100AB00018B88AB980E88BB961E087E10E94912378
:100AC00060E087E10E94CD2360E080E00E94CD23BA
:100AD00063E0E62EF12C62E370E080E090E00E949B
:100AE000E32261E087E10E94CD236AE070E080E0CC
:100AF00090E00E94E32260E087E10E94CD2381E044
:100B0000E81AF10841F758E0F52E8091060120E43B
:100B1000829FC0011124816180937C0068EC70E0A9
:100B200080E090E00E94E32210927B0080917A00A6
:100B3000806280937A0080917A00806480937A004A
:100B400080917A00846080937A0080917A008D7F12
:100B500080937A0080917A008E7F80937A008091D2
:100B60007A00806180937A0080917A0084FFFCCFC4
:100B700080917A00806180937A00809178008093E0
:100B8000F401809179008093F3018091060120E4C3
:100B9000829FC0011124806180937C0010927B00B1
:100BA00080917A00806280937A0080917A008064DC
:100BB00080937A0080917A00846080937A0080919B
:100BC0007A008D7F80937A0080917A008E7F809367
:100BD0007A008091F30120E8829FC00111242091C6
:100BE000F40130E035952795822B932B8F3F9105AB
:100BF00011F00CF0CEC093959093F2018093F10127
:100C00008091F1019091F201080F191FFA94F110EF
:100C10007CCF83E0169507958A95E1F7109308013C
:100C20000093070163E971E083E395E00E943D20B2
:100C30004AE060E071E0CE0101960E940F216CE96C
:100C400071E0CE014C960E94C32061E172E0CE01BA
:100C50004C960E94F62166E471E00E9409226BE046
:100C600072E00E94F62166E471E00E94092265E0CC
:100C700072E00E94F62166E471E00E940922BE0142
:100C80006F5F7F4F0E94F62166E471E00E940922A7
:100C9000BC01CE01CD960E94AB21CE014C960E94A4
:100CA0005420CE0101960E94542068E570E08FE642
:100CB00094E00E944C1B68E070E08FE694E00E9494
:100CC000BB0070E060E08FE694E00E94BB008FE61E
:100CD00094E00E94CA1B40E168E58FE694E00E9420
:100CE000C41B10E18FE694E00E94C31A082F8031E4
:100CF00030F462EA71E0CE01CD960E94E72140E136
:100D0000602FCE0101960E94E220BE016F5F7F4FEF
:100D1000CE01CD960E94E021CE0101960E94542082
:100D20008091F7019091F801A091F901B091FA0139
:100D3000800F911DA11DB11D8093F7019093F801C3
:100D4000A093F901B093FA01115061F68EEB84B9CA
:100D50008FE085B964E08AE192E00E94010A811186
:100D60001AC062E571E083E395E00E943D20CE0168
:100D7000CD960E945420CE5BDF4F0FB6F894DEBFB5
:100D80000FBECDBFDF91CF911F910F91FF90EF90DC
:100D900008959A9531CF81E090E09093FE01809381
:100DA000FD016091FD017091FE016436710578F5D9
:100DB0004AE0CE014C960E943B21BE01645E7F4F0B
:100DC000CE0101960E94AB2165E871E0CE0101964B
:100DD0000E940922BC018FEF91E00E949421CE0174
:100DE00001960E945420CE014C960E94542060919E
:100DF000FF01709100028AE192E00E94AC0B88230F
:100E000031F08091FD019091FE010196C6CF609175
:100E1000FD017091FE01615071097093FE016093B4
:100E2000FD014AE0CE014C960E943B21BE01645E6A
:100E30007F4FCE0101960E94AB2165E871E0CE01A3
:100E400001960E940922BC018FEF91E00E9494213B
:100E5000CE0101960E945420CE014C960E9454204F
:100E60004091FF015091000223E16AE172E0CE015E
:100E70004C960E94210BCE014C960E94A508613031
:100E80007F438B4A914008F45BC0CE014C960E9490
:100E9000E3086091FD017091FE016F5F7F4F7093D9
:100EA000FE016093FD014AE0CE01C7960E943B21FE
:100EB000BE01695C7F4FCE0101960E94AB2165E8BF
:100EC00071E0CE0101960E940922BC018FEF91E0F2
:100ED0000E949421CE0101960E945420CE01C79613
:100EE0000E9454204091FF015091000223E16AE1E9
:100EF00072E0CE0101960E94210B8B819C819F8F15
:100F00008E8F8D819E81AF81B88588A399A3AAA376
:100F1000BBA389859A85AB85BC858CA39DA3AEA315
:100F2000BFA3DE011D96FE01B896CE01C5962D9198
:100F30002193E817F907D9F78A8D9B8D9EAB8DAB6E
:100F4000CE014C960E94F5088823B9F0BE01635C7F
:100F50007F4FCE014C960E942B20CE014C960E94D2
:100F6000E308BE01635C7F4F83E395E00E942B2082
:100F70008EE984B981E085B9FACE6FE671E083E34A
:100F800095E00E943D20F4CFE7E1F2E088E680831F
:100F900012821182089590E080E00895CF93DF934C
:100FA0001F92CDB7DEB76983DC01ED91FC91028021
:100FB000F381E02D41E050E0BE016F5F7F4F099566
:100FC0000F90DF91CF910895CF93DF93EC01E98DDE
:100FD000FA8D309749F481E090E09B838A8390E01A
:100FE00080E0DF91CF91089513821282898D9A8DCE
:100FF0000E946214E98DFA8D22813381232B59F7E7
:10100000F0CFFC01818D928D009711F00C94F111BD
:101010000895CF93DF931F92CDB7DEB741E050E044
:10102000BE016F5F7F4F0E941510019731F48981D7
:1010300090E00F90DF91CF9108958FEF9FEFF9CF60
:10104000FC01818D928D009711F00C9409088FEFAF
:101050009FEF08950F931F93CF93DF93EC01898D3A
:101060009A8D10E000E0009799F00E9409088C0129
:101070000F3F100769F0898D9A8DFC0142855385D9
:101080006485758541505109610971090E945D119E
:10109000C801DF91CF911F910F910895EF92FF92B8
:1010A0000F931F93CF93DF93EC017B018A011B8287
:1010B0001A8288EE93E0A0E0B0E08C839D83AE833B
:1010C000BF8388EA91E0998388838DE190E00E9454
:1010D00041249A8F898F009779F02DE1F701DC0187
:1010E00001900D922A95E1F74CE050E0B801CE0155
:1010F0000C960E946F26188EDF91CF911F910F9151
:10110000FF90EF900895FC011382128288EE93E025
:10111000A0E0B0E084839583A683B78388EA91E05A
:1011200091838083128E118E14860895DC01599666
:10113000ED91FC91309729F06285738584859585C2
:1011400008956FEF7FEFCB010895DC015996ED9183
:10115000FC91309729F0638974898589968908956F
:1011600060E070E0CB010895CF92DF92EF92FF92A2
:10117000CF93DF93FC01218D328D232B09F1EC01FC
:101180000E94A5086B017C01CE010E949608A70170
:101190009601261B370B480B590BDA01C901811543
:1011A00030E89307A105B10520F08FEF9FE7A0E09D
:1011B000B0E0DF91CF91FF90EF90DF90CF90089556
:1011C00090E080E0F6CFCF93DF93EC01898D9A8D8C
:1011D000009741F00E943A12898D9A8D0E94DD2479
:1011E0001A8E198EDF91CF910895DC015996ED91F9
:1011F000FC91309721F081E09581911101C080E050
:1012000008951F93CF93DF93CDB7DEB76D970FB6D9
:10121000F894DEBF0FBECDBFAB011C821B822CEB4E
:1012200031E03A8329831E8221E0BC01CE01019680
:101230000E94751311E081110CC010E0812F6D9692
:101240000FB6F894DEBF0FBECDBFDF91CF911F91D7
:101250000895CE0101960E943A12F0CFEF92FF92CC
:101260000F931F93CF93DF937B01DB012D913C9173
:10127000FC01E20FF31F60816F3211F42F5F3F4FCB
:101280008C01020F131FEA01F0E0E0E0D8017D912C
:101290008D017F3249F0772339F02F5F3F4F319630
:1012A0007993EC30F10591F7E40FF51F1082FC0102
:1012B000E20FF31F40814F3211F42F5F3F4FF701D0
:1012C00031832083280F391F81E0D9019C9191112E
:1012D00001C080E0DF91CF911F910F91FF90EF90BF
:1012E00008954F925F926F927F928F929F92AF92EA
:1012F000BF92CF92DF92EF92FF920F931F93CF9303
:10130000DF93CDB7DEB7C954D1090FB6F894DEBF6D
:101310000FBECDBF5C016B013A01490119A218A2B1
:101320008CEB91E09F8F8E8F1BA21C821B829A8375
:1013300089831E822A961FAE1EAE2A978B017E01DC
:101340008EE1E80EF11C44244394AE01455C5F4FEE
:10135000BE01685B7F4FC5010E942E09582E482FA1
:1013600044259401BE01655C7F4FC801F3010995D6
:10137000811120C00C151D05C9F480E0C75BDF4F4B
:101380000FB6F894DEBF0FBECDBFDF91CF911F9196
:101390000F91FF90EF90DF90CF90BF90AF909F9014
:1013A0008F907F906F905F904F900895C8010E943A
:1013B0003A12E3CF552091F021E0AE01455C5F4F3A
:1013C000B801C7010E947513582E0C151D0571F048
:1013D000C8010E943A1251100EC0CFCF0C151D0546
:1013E00019F0C8010E943A1281E0C8CF882329F27F
:1013F0008E010F5F1F4F902F812F8701E92EF82E4E
:10140000A4CF0F931F93CF93DF93EC01162F8FA5DB
:10141000882321F0CE018A960E943A12412F61E082
:10142000CE010E94D90C811102C090E012C08E0141
:10143000045F1F4F41E0BE01C8010E949C19882330
:1014400071F0B801CE018A960E94C50F91E0882301
:1014500061F3892FDF91CF911F910F91089540E0A3
:10146000BE01C8010E949C198823F9F2EACFFC0151
:10147000DB0112968D919C911397938382838CEB61
:1014800091E09183808314968C91149784831596B0
:101490008C911597858316964D915D916D917C91F8
:1014A000199746835783608771871A964D915D918E
:1014B0006D917C911D9742875387648775871E962F
:1014C0004D915D916D917C91519746875787608BC7
:1014D000718B52968C915297828B53964D915D9160
:1014E0006D917C915697438B548B658B768B579679
:1014F0004D915D916D917C915A97478B508F618F83
:10150000728F5B968D919C91948F838F08954F92EB
:101510005F926F927F928F929F92AF92BF92CF9283
:10152000DF92EF92FF920F931F93CF93DF93CDB78C
:10153000DEB7C754D1090FB6F894DEBF0FBECDBFDA
:101540005C014A013901665D7F4F7E018EE1E80E44
:10155000F11CC7010E94370A1C821B828CEB91E0B0
:101560009A8389831E828401FE0131966F015E2C6D
:101570004F2C6FE270E0C8010E945D26009709F4CD
:1015800055C0F80120812F3219F40F5F1F4FF1CFA2
:10159000801B8D3008F08CE0E82EF12CA701B801FB
:1015A000CE01CB960E946F26EBE3F0E0EC0FFD1F1F
:1015B000EE0DFF1D1082C6010E943A1221E0AE011D
:1015C000455C5F4F652D742DC6010E947513811116
:1015D00021C0F501138212828CEB91E0918380830C
:1015E0001582C501C95BDF4F0FB6F894DEBF0FBE91
:1015F000CDBFDF91CF911F910F91FF90EF90DF90C2
:10160000CF90BF90AF909F908F907F906F905F90A2
:101610004F9008950E0D1F1D852D942D0E943A1296
:10162000C2015C2C4D2CC92ED82EA3CF0819190944
:10163000F30111830083652D742DC5010E94370AC3
:10164000D0CFAF92BF92CF92DF92FF920F931F93B2
:10165000CF93DF93CDB7DEB7C955D1090FB6F89454
:10166000DEBF0FBECDBF6C015B018A01F22E9E0171
:10167000285A3F4FCE01CB960E94870A6A968EADBC
:101680009FAD6A97080F191FF8018081811110C062
:10169000BE01655C7F4FCE0101960E94370A46EB82
:1016A00051E0BE016F5F7F4FC6010E944E080FC020
:1016B00019A218A28CEB91E09F8F8E8F1BA221960E
:1016C0008FAD2197811115C0C6010E948308C60104
:1016D000C75ADF4F0FB6F894DEBF0FBECDBFDF9104
:1016E000CF911F910F91FF90DF90CF90BF90AF905F
:1016F000089582508230F8F4B501665D7F4F2F2D3A
:10170000A801CE014E960E9475138823E9F28F2D11
:10171000867041F049A95AA96BA97CA9CE014E96C1
:101720000E945D11BE01625E7F4FCE0101960E9454
:10173000370AA801B6CF2F2DA801BE01655C7F4FE7
:10174000CE014E960E947513882309F4BDCFCE01B9
:10175000CB960E943A12DBCFFB01BC01665D7F4F46
:1017600030E020E041E059E0CF010C947109EAE15A
:10177000F2E0158216821186138682E090E0A0E0E6
:10178000B0E084879587A687B78713A215A614A60D
:101790008CEB91E093A782A717A608959FB7F894C2
:1017A0002091310580912F05213019F48DBB9FBF09
:1017B00008958FBF089520913105222381F03FB70E
:1017C000F89420913105213069F42DB320932F0531
:1017D0004DB320913005209524232DBB3FBF8CBDF8
:1017E0009DBD089530932F05FACF8EBD00000DB436
:1017F00007FEFDCF8EB508958FEF0C94F50B61E0D9
:10180000FC0184810E94CD2380916302882339F0FA
:10181000109263028091310581110C94CE0B0895D2
:10182000CF93DF93EC0180916302811109C081E0C5
:101830008093630280916402909165020E94DB0BA9
:1018400060E08C81DF91CF910C94CD23CF93DF9317
:10185000EC018E81882389F08F8198859C012F5F10
:101860003F4F38872F838230924018F40E94FC0B40
:10187000F3CFCE010E94FF0B1E82DF91CF9108951E
:10188000673030F026E1FC01258360E0862F089563
:10189000623011F130F4662389F06130B9F083E5EC
:1018A00008C06430D9F081E5643018F082E5653015
:1018B000B1F7809364021092650206C080E58093C0
:1018C000640281E08093650261E0E0CF80E580936F
:1018D000640210926502DACF81E5F1CF82E5EFCFA5
:1018E0000F931F93CF93DF93EB010E94B2228B01E2
:1018F0000E94FC0B8F3F69F00E94B222601B710BAB
:101900006C177D07A8F380E0DF91CF911F910F91B5
:10191000089581E0F9CF8F929F92AF92BF92FF928C
:101920000F931F93CF93DF93EC01F62E49015A01D9
:101930000E94260CCE010E94100C6CE271E0CE01D8
:101940000E94700C8F2D80640E94F50B08E110E05E
:10195000D501C401002E04C0B695A795979587952B
:101960000A94D2F70E94F50B08501109083F8FEF37
:10197000180771F785E9FF2021F088E0F8120DC003
:1019800087E80E94F50B10E00E94FC0B8A8787FF16
:1019900006C01F3F21F01F5FF7CF8FEFF2CFDF911F
:1019A000CF911F910F91FF90BF90AF909F908F901C
:1019B00008958F929F92AF92BF92EF92FF920F93F2
:1019C0001F93CF93DF93EC01E62E1B8619861E82B0
:1019D0001D824C830E94B2228B0161E08C810E94A7
:1019E000912361E08C810E94CD230E94D81D82E565
:1019F0008093640210926502809164029091650266
:101A00000E94DB0B2AE0F22E8FEF0E94F50BFA9476
:101A1000F110FACF8091310581110E94CE0BCE01D9
:101A20000E94100C20E030E0A90160E0CE010E948D
:101A30008B0CF82E8A8781E0F816C1F00E94B22242
:101A4000601B710B613D774068F381E08D83CE01AF
:101A50000E94FF0B80E0DF91CF911F910F91FF90CB
:101A6000EF90BF90AF909F908F9008952AEA31E059
:101A700040E050E068E0CE010E948B0C82FF25C060
:101A8000FB868B85812C912C5401823029F4812C8A
:101A9000912CA12C80E4B82E20E030E0A90167E36E
:101AA000CE010E948B0CA501940169E2CE010E9437
:101AB0008B0C8A878823C1F00E94B222601B710BB5
:101AC000613D774048F388E0C1CF94E0F92E0E9451
:101AD000FC0B8A87FA94F110FACF8A3A11F082E06F
:101AE000B5CF82E08B87CDCF8B858230C1F420E0EB
:101AF00030E0A9016AE3CE010E948B0C882311F02B
:101B000086E0A4CF0E94FC0B807C803C11F483E033
:101B10008B870E94FC0B0E94FC0B0E94FC0BCE01E9
:101B20000E94FF0B6E2DCE01DF91CF911F910F917F
:101B3000FF90EF90BF90AF909F908F900C94400CCF
:101B40000F931F93CF93DF93EC010E94B2228B017E
:101B50000E94FC0B8A878F3F91F40E94B222601B87
:101B6000710B6D327140A0F38FE08D83CE010E9426
:101B7000FF0B80E0DF91CF911F910F9108958E3F71
:101B800011F08DE0F2CF81E0F5CFCF92DF92EF92AE
:101B9000FF920F931F93CF93DF93EC016901C8016C
:101BA000820F931F8130924048F58E81882371F017
:101BB00088819981AA81BB8184179507A607B707F9
:101BC00029F48F819885C816D90670F54883598302
:101BD0006A837B838B85833039F089E0440F551FFE
:101BE000661F771F8A95D1F79A01AB0161E1CE019B
:101BF0000E948B0C882379F083E08D83CE010E94B4
:101C0000FF0B80E0DF91CF911F910F91FF90EF903C
:101C1000DF90CF900895CE010E94A00D882371F32C
:101C200018861F8281E08E838F8198858C159D0593
:101C300060F06701E00EF11EEC14FD0471F00E94EB
:101C4000FC0BF60181936F01F7CF0E94FC0B8F8193
:101C50009885019698878F83E7CF8F819885080FA5
:101C6000191F18870F838985882319F001151240E1
:101C700018F0CE010E94260C81E0C4CFEF92FF92B3
:101C80000F931F930115110539F00E94C50D1F9187
:101C90000F91FF90EF90089581E0F9CFEF92FF92BE
:101CA0000F931F93790100E012E030E020E00E94E2
:101CB000C50D1F910F91FF90EF900895EF92FF9245
:101CC0000F931F93CF93DF938C01862F7A010E948D
:101CD000F50BE7018EEFF81A89910E94F50BCE15EE
:101CE000DF05D1F78FEF0E94F50B8FEF0E94F50B08
:101CF0000E94FC0BF80182878F71853069F081E1C9
:101D00008583C8010E94FF0B80E0DF91CF911F9176
:101D10000F91FF90EF90089581E0F7CF0F931F93FD
:101D2000CF93DF93EC01890182E1411551056105F3
:101D3000710599F08B85833039F089E0440F551F88
:101D4000661F771F8A95D1F79A01AB0168E1CE0132
:101D50000E948B0C882339F084E08D83CE010E9491
:101D6000FF0B80E023C0A8016EEFCE010E945E0E43
:101D70008823A1F368E572E0CE010E94700C811106
:101D800002C085E1EACF20E030E0A9016DE0CE019C
:101D90000E948B0C882311F084E1DFCF0E94FC0BA2
:101DA0008111FACFCE010E94FF0B81E0DF91CF912C
:101DB0001F910F910895E4E6F2E080E5808311829F
:101DC00008950895CF93DF93EC019C012A5F3F4F64
:101DD00041E050E060E070E08B8D9C8D0E943B18EC
:101DE0008823A1F08F89988DA98DBA8D892B8A2B94
:101DF0008B2B59F48E819F81A885B9858F8B988F05
:101E0000A98FBA8F8C8180688C8381E0DF91CF911C
:101E100008958F929F92AF92BF92CF92DF92EF92EE
:101E2000FF92CF93DF93EC010E94E20E81110CC070
:101E300080E0DF91CF91FF90EF90DF90CF90BF9047
:101E4000AF909F908F900895EB8DFC8DCE80DF80BA
:101E5000E884F98482E0C81AD108E108F108858590
:101E600004C0CC0CDD1CEE1CFF1C8A95D2F78685C5
:101E70009785A089B189C80ED91EEA1EFB1E8481F0
:101E800046015701880E911CA11CB11C8C149D04A5
:101E9000AE04BF0461F081E0881A9108A108B1087E
:101EA000C501B4010E9489168111F0CFC1CFEB8D1D
:101EB000FC8D258580E092E0A0E0B0E004C0880FB2
:101EC000991FAA1FBB1F2A95D2F74B895C896D8980
:101ED0007E89840F951FA61FB71F8B8B9C8BAD8BA4
:101EE000BE8B81E0A6CFCF93DF93EC01462F6E85AA
:101EF0007F85888999890E944E16882351F08A89A6
:101F000020E2829FC001112481599D4FDF91CF9122
:101F1000089590E080E0FACFFB019B01255F3F4FE1
:101F200040E241932E173F07E1F7DC0120E037E064
:101F30009D91492F992319F19E3229F43A3059F095
:101F400028E03AE0F5CFECE8F0E08491882329F02E
:101F500031969813FACF80E017C03217A8F05FEDE2
:101F6000590F5E3588F48FE9890F8A3110F440EEFD
:101F7000490FFB01E20FF11D40832F5FD9CF81E0B4
:101F8000FB019081903239F308950F931F93CF9303
:101F9000DF93FC012581222331F080E0DF91CF9196
:101FA0001F910F9108958B01EC01FB01878980310E
:101FB00039F582E08D831F8A188E198E1A8E808DD6
:101FC000918DB0E0A0E025E0880F991FAA1FBB1FEC
:101FD0002A95D1F78B8B9C8BAD8BBE8B1C8F0B8F77
:101FE00081E08C831E821F82188619861A861B86C2
:101FF0001C861D861E861F86188A198A1A8ACECFCD
:10200000803259F683E08D83428D538D648D758DBA
:102010004F8B588F698F7A8F9E012D5E3F4FC8017D
:102020000E942E178111DACFB8CF2F923F924F9294
:102030005F926F927F928F929F92AF92BF92CF9258
:10204000DF92EF92FF920F931F93CF93DF93EC01F8
:102050005B012A018D81811115C08FEF9FEFDF9108
:10206000CF911F910F91FF90EF90DF90CF90BF9095
:10207000AF909F908F907F906F905F904F903F9028
:102080002F9008958C8180FFE8CF0B891C892D89C2
:102090003E894A855B856C857D85C201B0E0A0E004
:1020A00068017901C41AD50AE60AF70AC816D906E2
:1020B000EA06FB0618F42801441A550A42011E01DB
:1020C00026E0220E311C8114910409F4B3C04A8524
:1020D0005B856C857D856A0181E0D8228B8D9C8D26
:1020E0008A019B01E9E03695279517950795EA95B2
:1020F000D1F7ED81E230E1F5FC01628D738D848DC5
:10210000958D600F711F821F931F612C22E0722E2C
:102110006C187D088614970408F434012C8126FD80
:1021200004C06114F2E07F0671F40091090110917E
:102130000A0120910B0130910C010617170728079F
:10214000390709F053C040E00E944E16882309F475
:1021500084CFC60181599D4FD5019C01260D371DA5
:10216000FC012E173F0709F460C041914D93F9CF50
:10217000FC0174807A947022C114D10471F471103E
:102180000CC0452B462B472B39F58F89988DA98D8F
:10219000BA8D8E839F83A887B987EB8DFC8D6E8166
:1021A0007F8188859985625071098109910925850A
:1021B00004C0660F771F881F991F2A95D2F70685DE
:1021C000178520893189600F711F821F931F670D4A
:1021D000711D811D911D99CF4E815F816885798523
:1021E00091010E94AD168111D8CF37CF75018301BF
:1021F0009601AB01BC0180916D0290916E020E942C
:102200003E0E882309F429CFA60CB71C8A859B852E
:10221000AC85BD85860D971DA11DB11D8A879B8745
:10222000AC87BD87861897084ECF281B390BA20EA6
:10223000B31EECCFC20113CFFF920F931F93CF9326
:10224000DF931F92CDB7DEB7FC0125812230C8F0A5
:102250008C01428553856485758585E07695679503
:10226000579547958A95D1F7F42FFF70FF2E41E0DF
:1022700050E0BE016F5F7F4FC8010E9415100197AB
:1022800019F090E080E012C0F80182859385A48562
:10229000B5854F96A11DB11D82879387A487B58709
:1022A000F0E2FF9EC001112481599D4F0F90DF91F4
:1022B000CF911F910F91FF9008958F929F92AF92AF
:1022C000BF92CF92DF92EF92FF920F931F93CF9323
:1022D000DF93EC018D8181110EC080E0DF91CF9101
:1022E0001F910F91FF90EF90DF90CF90BF90AF9034
:1022F0009F908F9008950B891C892D893E89041722
:1023000015072607370748F34A015B01823031F48D
:102310008A869B86AC86BD8681E0E0CF81149104DD
:10232000A104B10449F41E821F82188619861A86F8
:102330001B861C861D86F0CF0A851B852C853D8556
:10234000EB8DFC8D858590E00996B901A80141507F
:10235000510961097109082E04C076956795579552
:1023600047950A94D2F775016401E1E0CE1AD108CD
:10237000E108F10804C0F694E794D794C7948A95CD
:10238000D2F7C416D506E606F70620F0012B022B7D
:10239000032B11F58F89988DA98DBA8D8E839F831C
:1023A000A887B9878E010A5F1F4FC114D104E104C9
:1023B000F10409F4ADCF4E815F816885798598017C
:1023C0008B8D9C8D0E94AD1691E0C91AD108E10851
:1023D000F1088111EACF81CFC41AD50AE60AF70ABB
:1023E000E1CF0F931F93CF93DF93EC018D8188236F
:1023F000D9F18C8187FF32C061E0CE010E94730F5A
:102400008C01892B89F18D81823048F48B899C89DC
:10241000AD89BE89F801848F958FA68FB78F8F897C
:10242000988DF801938F828F8F89988DA98DBA8DA1
:10243000B58BA48BE0916602F0916702309759F05A
:10244000B8016A5E7F4FC80148960995F801808DF2
:10245000918D938B828B8C818F778C83DF91CF9141
:102460001F910F910C94131680E0DF91CF911F9173
:102470000F910895CF93DF93EC010E94F11188230F
:1024800011F01D8281E0DF91CF9108954F925F920C
:102490006F927F928F929F92AF92BF92EF92FF9234
:1024A0000F931F93CF93DF9300D000D0CDB7DEB74B
:1024B000FC0185818130A1F080E00F900F900F909A
:1024C0000F90DF91CF911F910F91FF90EF90BF90F0
:1024D000AF909F908F907F906F905F904F900895F6
:1024E000848181FFE9CF83899489A589B68984177E
:1024F0009507A607B70700F3892B8A2B8B2B09F4C6
:1025000077C04A015B017F014284538464847584EF
:10251000CF010E945D11882379F2F701838D948D9C
:1025200081149104A104B10449F54789508D618D4E
:10253000728D0E944619882309F4BECFF701178ACD
:10254000108E118E128EF701838A948AA58AB68A1C
:10255000848180688483C7010E94F111882309F473
:10256000ABCFB501A401441655066606770610F4F4
:10257000B301A201C7010E945D119FCF468157811F
:10258000608571859E012F5F3F4F0E94AD168823A5
:1025900009F492CFF701838D948D49815A816B8123
:1025A0007C81FC0127892031F1F408EF1FEF20E046
:1025B00030E0401751076207730728F60E9446195A
:1025C000882309F479CFF7014681578160857185A9
:1025D0000FEF1FEF2FEF3FE0838D948D0E9499172F
:1025E0008111B1CF69CF08EF1FEF2FEF3FE0E1CFAF
:1025F00081E063CFCF92DF92EF92FF921F93CF9350
:10260000DF93EC0180E2689FF0011124E159FD4F56
:102610009385917161F0842F827449F080E0DF919D
:10262000CF911F91FF90EF90DF90CF900895142FDE
:102630006A8B8091090190910A01A0910B01B091E0
:102640000C018E879F87A88BB98BC488D588F12C05
:10265000E12C7601DD24CC24CF8AD88EE98EFA8E47
:10266000828D938DB0E0A0E0AC01BD014C295D29C5
:102670006E297F294F8B588F698F7A8F8385887158
:1026800029F5848D958DA68DB78D8B8B9C8BAD8B0D
:10269000BE8B81E08D83812F8F708C831E821F8281
:1026A000188619861A861B861C861D8681E016FFF1
:1026B000B6CF40E050E0BA01CE01DF91CF911F913B
:1026C000FF90EF90DF90CF900C944612803109F08C
:1026D000A5CF9E012D5E3F4F8B8D9C8D0E942E17A6
:1026E000882309F49BCF84E0D5CFBF92CF92DF92AD
:1026F000EF92FF920F931F93CF93DF93CDB7DEB787
:102700002B970FB6F894DEBF0FBECDBFFC0135810D
:1027100031110BC0C22E8B017C01BE016F5F7F4F58
:10272000CA010E948C0F811102C080E0A1C0F80193
:10273000838D948DF701948F838FF8011682178211
:10274000108611861286138614861586B12CF80120
:1027500082859385A485B585438954896589768961
:1027600084179507A607B70788F525E0B695A795BE
:10277000979587952A95D1F7F82FFF70DF2EC8011E
:102780000E941C11009789F2FC012081222341F054
:10279000253E09F059C0BB2029F0BB24B394D7CF04
:1027A000B1100EC0F701D28A4091090150910A017F
:1027B00060910B0170910C0146875787608B718B7C
:1027C000FC0180818111E9CFBB24B3948C2D8271EF
:1027D000823109F0AACFBB2009F45AC061E0C701D9
:1027E0000E94730F8C01892B09F49FCF80E2F801BE
:1027F00011928A95E9F78BE0FE013196D80101909C
:102800000D928A95E1F7E0916602F09167023097A8
:1028100009F44EC0B801625F7F4FC8014096099528
:10282000F80180899189938B828B918F808F868527
:102830009785978B868B0E941316882309F475CF92
:102840004C2DF701628911C04BE050E0BC01CE0174
:1028500001960E944726892B09F079CF8C2D807331
:102860004C2D6D2D803309F460CFC7010E94FA1200
:102870002B960FB6F894DEBF0FBECDBFDF91CF9180
:102880001F910F91FF90EF90DF90CF90BF90089530
:10289000F8018581823009F448CFC8010E94090FF0
:1028A000882309F442CFF701128A0FE612E09ECF87
:1028B00081E298E2F801918B808B80E098E0978725
:1028C0008687AECF2F923F924F925F926F927F9208
:1028D0008F929F92AF92BF92CF92DF92EF92FF9230
:1028E0000F931F93CF93DF9300D000D0CDB7DEB707
:1028F0008C016B011A01DC0115968C9115978130C2
:1029000009F0C8C014968C9181FFC4C082FDAEC08E
:102910004101D8011A964D915D916D917C911D9761
:102920008114910409F429C15B968D919C915C9767
:10293000FC0174802FEF270D2A013B0139E07694CA
:102940006794579447943A95D1F7722E74207A0180
:10295000F1E0FF22711020C0E114F104E9F41696B1
:102960004D915D916D917C911997411551056105CE
:10297000710509F098C057968D919D910D90BC916D
:10298000A02D0097A105B10509F0AFC0C8010E94B4
:10299000E20E882309F47EC080E092E08E199F0940
:1029A00054018815990508F45C01D8015B964D9196
:1029B0005C915C9716968D919D910D90BC91A02D88
:1029C0000297A109B109FA01258504C0880F991F52
:1029D000AA1FBB1F2A95D2F7468557856089718942
:1029E000840F951FA61FB71F9C01AD01270D311D38
:1029F000411D511D29013A01A11432E0B30609F02D
:102A00007AC08091090190910A01A0910B01B091C7
:102A10000C0184159505A605B70559F48FEF9FEFB6
:102A2000DC018093090190930A01A0930B01B093FC
:102A30000C019601B301A20180916D0290916E028A
:102A40000E948E0E882331F19EEFD91A8A189B08B6
:102A5000F80182859385A485B5858A0D9B1DA11DEE
:102A6000B11D82879387A487B58753CFF801438927
:102A700054896589768982859385A485B5854817AB
:102A800059076A077B0709F443CFC8010E945D110B
:102A900081113ECF81E090E0D80113969C938E93F4
:102AA000129780E007C09E012F5F3F4F0E94AD1636
:102AB000811102C090E07BC089819A81AB81BC8189
:102AC000F801238D348DF901278948EF5FEF60E02D
:102AD00070E0203121F048EF5FEF6FEF7FE0841767
:102AE0009507A607B70708F051CFF80186839783AB
:102AF000A087B18751CFE114F10491F5D8011A965E
:102B00004D915D916D917C911D9753968D919D9105
:102B10000D90BC91A02D481759076A077B0700F15B
:102B20000E941316882309F4B5CF409209015092F0
:102B30000A0160920B0170920C0180916C0281601D
:102B400080936C02970121593D4FD601C9018A0D2E
:102B50009B1DF9018E179F0759F04D914193FACFB4
:102B600041E0C301B2010E944E168111EBCF92CF1A
:102B7000821B930BC80ED91E69CF14968C911497A3
:102B80005396CD90DD90ED90FC905697C416D506E7
:102B9000E606F70618F5F801438B548B658B768BA8
:102BA00080688483F801848183FD25C0C1010F9072
:102BB0000F900F900F90DF91CF911F910F91FF9089
:102BC000EF90DF90CF90BF90AF909F908F907F90CD
:102BD0006F905F904F903F902F90089520916602E4
:102BE00030916702232BF1F221143104D9F280686D
:102BF00014968C93D7CFC8010E94F111882309F451
:102C000049CFD4CFCF93DF931F92CDB7DEB769837F
:102C100041E050E0BE016F5F7F4F0E9462140F9051
:102C2000DF91CF91089580916C028823A9F14091A2
:102C3000090150910A0160910B0170910C012FE67E
:102C400032E080916D0290916E020E948E0E811191
:102C500002C080E00895409168025091690260913D
:102C60006A0270916B02411551056105710591F081
:102C70002FE632E080916D0290916E020E948E0EDE
:102C8000882339F3109268021092690210926A0246
:102C900010926B0210926C0281E00895CF92DF9245
:102CA000EF92FF92CF936B017C01C42F80910901B9
:102CB00090910A01A0910B01B0910C018C159D051A
:102CC000AE05BF05F9F00E941316811107C080E020
:102CD000CF91FF90EF90DF90CF9008952FE632E0F4
:102CE000B701A60180916D0290916E020E944E0E76
:102CF000882369F3C0920901D0920A01E0920B0186
:102D0000F0920C0140916C024C2B40936C0281E0DC
:102D1000DFCFCF92DF92EF92FF926B017C010E9496
:102D200013168823A9F0EFE6F2E0119284E0EF3663
:102D3000F807D9F7C0920901D0920A01E0920B017D
:102D4000F0920C0180916C02816080936C0281E0B2
:102D5000FF90EF90DF90CF9008958F929F92AF9267
:102D6000BF92CF92DF92EF92FF920F931F93CF9378
:102D7000DF93FC0181859285A385B4850196A11D11
:102D8000B11D84179507A607B70770F480E0DF919F
:102D9000CF911F910F91FF90EF90DF90CF90BF9058
:102DA000AF909F908F90089583889488A588B68867
:102DB0008789803189F5BB27A72F962F852FE901B9
:102DC0006A017B018F01BC01CD01680D791D8A1D4F
:102DD0009B1D8090090190900A01A0900B01B0907A
:102DE0000C0186169706A806B90601F5F801878931
:102DF000803111F5DD24EE24FF24F601EE0FFF1FD4
:102E0000E159FD4F80819181B0E0A0E088839983F2
:102E1000AA83BB8381E0BBCFDB01CA01C7E0B695C3
:102E2000A79597958795CA95D1F7C9CF40E00E949D
:102E30004E168111DBCFAACFE894C7F8DD24EE242B
:102E4000FF24F601EE0FFF1FEE0FFF1FE159FD4FAC
:102E500080819181A281B381BF70D8CF4F925F9260
:102E60006F927F92AF92BF92CF92DF92EF92FF92DA
:102E70000F931F93CF93DF9300D000D0CDB7DEB771
:102E80008C0149835A836B837C835901C12CD12CDB
:102E90007601412C82E0582E612C712C49815A8197
:102EA0006B817C819E012F5F3F4FC8010E94AD1650
:102EB000882339F1F8018585A301920104C0220F0E
:102EC000331F441F551F8A95D2F7DA01C901C80E76
:102ED000D91EEA1EFB1E49815A816B817C8187893C
:102EE000803111F188EF9FEFAFEFBFE0481759072E
:102EF0006A077B0798F2F501C082D182E282F382F1
:102F000081E00F900F900F900F90DF91CF911F9164
:102F10000F91FF90EF90DF90CF90BF90AF907F9098
:102F20006F905F904F90089588EF9FEFA0E0B0E022
:102F3000DDCF4F925F926F927F928F929F92AF926E
:102F4000BF92CF92DF92EF92FF920F931F93CF9396
:102F5000DF93EC01423051056105710590F480E08A
:102F6000DF91CF911F910F91FF90EF90DF90CF9065
:102F7000BF90AF909F908F907F906F905F904F9099
:102F8000089589859A85AB85BC850196A11DB11DE3
:102F900084179507A607B70710F3CB88DC88ED8860
:102FA000FE888F89803109F042C0BB27A72F962F5A
:102FB000852F480159012A013B01C80ED91EEA1E7E
:102FC000FB1E8091090190910A01A0910B01B09123
:102FD0000C01C816D906EA06FB0699F58F898031DF
:102FE000C1F5B301A201552766277727440F551F66
:102FF00041595D4FFA019182808280916C0281601B
:1030000080936C028A89823080F08D819E81AF81AD
:10301000B8858C0D9D1DAE1DBF1D809368029093D9
:103020006902A0936A02B0936B0281E099CFDB0141
:10303000CA01E7E0B695A79597958795EA95D1F7E8
:10304000B8CF40E0C701B6010E944E168111C6CF2D
:1030500086CFB301A2014F77552766277727440F04
:10306000551F440F551F41595D4FFA0180829182CF
:10307000A282B382C2CF2F923F924F925F926F9201
:103080007F928F929F92AF92BF92CF92DF92EF92F8
:10309000FF920F931F93CF93DF93CDB7DEB72F9798
:1030A0000FB6F894DEBF0FBECDBF3C0148875987ED
:1030B0006A877B873F832E83D901CD90DD90ED9089
:1030C000FC90C114D104E104F10439F0BFEFCB1A34
:1030D000DB0AEB0AFB0A1D8210C0FC01C080D18014
:1030E000E280F380F1E0FD83088519852A853B8520
:1030F000013011052105310571F7F30181859285B4
:10310000A385B4858C019D010F5F1F4F2F4F3F4F4B
:103110000C871D872E873F8746015701212C312CB4
:103120002101F30181859285A385B485281639068E
:103130004A065B0608F044C00C851D852E853F8538
:10314000081519052A053B0550F482E0882E912CBC
:10315000A12CB12C92E0C92ED12CE12CF12C9E0196
:103160002F5F3F4FB501A401C3010E94AD16882314
:1031700039F1D501C4010196A11DB11D49815A81C2
:103180006B817C81452B462B472BA9F5AC01BD01FA
:103190004C195D096E097F09088519852A853B85CB
:1031A000401751076207730741F50FEF1FEF2FEF2D
:1031B0003FE0B501A401C3010E949917811125C008
:1031C0001D828D812F960FB6F894DEBF0FBECDBF46
:1031D000DF91CF911F910F91FF90EF90DF90CF90F3
:1031E000BF90AF909F908F907F906F905F904F9027
:1031F0003F902F9008956C017D011FEF211A310A35
:10320000410A510A4C015D018CCFC814D904EA046B
:10321000FB0488F41401250121E0221A3108410839
:10322000510895018401B201A101C3010E949917BF
:1032300052014101C3CFAE81BF814D915D916D912E
:103240007C91411551056105710561F4EE81FF81A5
:10325000C082D182E282F382FD81F1110BC001E0D4
:103260000D83AFCF97018601C3010E949917811189
:10327000EDCFA6CF1FEFC11AD10AE10AF10AD3019F
:10328000CD92DD92ED92FC9213979BCFAF92BF92BD
:10329000CF92DF92EF92FF920F931F93CF93DF9322
:1032A00000D000D0CDB7DEB75C016A017B0182E0BF
:1032B00090E0A0E0B0E0F50180839183A283B38326
:1032C0009E012F5F3F4FB701A601C5010E94AD16B9
:1032D000882381F100E010E09801B701A601C50143
:1032E0000E949917882331F1C980DA80EB80FC8035
:1032F000F50187898031C9F088EF9FEFAFEFBFE01C
:10330000C816D906EA06FB06D8F281E00F900F90A6
:103310000F900F90DF91CF911F910F91FF90EF9041
:10332000DF90CF90BF90AF90089588EF9FEFA0E01F
:10333000B0E0E6CF80E0EACF8F929F92AF92BF924B
:10334000CF92DF92EF92FF920F931F93CF93DF9371
:10335000EC01142F70936E0260936D02442309F404
:1033600078C0453070F080E0DF91CF911F910F91D0
:10337000FF90EF90DF90CF90BF90AF909F908F9095
:10338000089540E060E070E0CB010E944E16882373
:1033900051F3812F8150990BAC0164E0440F551F0C
:1033A0006A95E1F741595D4FFA01E254FE4F808181
:1033B0008F77C9F63C9680819181A281B381843652
:1033C0009105A105B10578F24A535E4FFA01C0801C
:1033D000D180E280F380C114D104E104F10419F238
:1033E00040E0C701B6010E944E16882309F4BBCF06
:1033F00080917A0290917B028115924009F0B3CFBF
:1034000090917F02992309F4AECF20917D023091F3
:103410007E02232B09F4A7CF80917C02882309F434
:10342000A2CF9A8B8C831D8690E041E050E02D85E1
:10343000E22FBA01022E02C0660F771F0A94E2F74C
:103440008617970751F031E0320F3D87283078F327
:103450008ACFC12CD12C7601C3CF20918502309127
:10346000860250E040E02115310541F4209193029D
:103470003091940240919502509196022D833E83A3
:103480004F83588780917D0290917E0246015701BB
:10349000880E991EA11CB11C8B8A9C8AAD8ABE8A9B
:1034A0000091800210918102198F088FA0917F02F4
:1034B000B0E00E942724DC01CB01880D991DAA1DD4
:1034C000BB1D8A8F9B8FAC8FBD8F25E0000F111F16
:1034D0002A95E1F701501E4F012F11270695800F05
:1034E000911FA11DB11D8E879F87A88BB98B00915D
:1034F00082021091830230E020E00115110541F4B1
:1035000000918F02109190022091910230919202CD
:10351000C81AD90AEA0AFB0AC00ED11EE21EF31E1F
:1035200004C0F694E794D794C794EA95D2F7C98675
:10353000DA86EB86FC868CE025EFC2162FE0D206F9
:10354000E104F10440F085EFC8168FEFD806E104DE
:10355000F10420F480E18F8B81E006CF80919B0203
:1035600090919C02A0919D02B0919E028A8F9B8FA8
:10357000AC8FBD8F80E2EFCF80919F049091A0042B
:10358000891B990B08959091A00480919F042FEFBF
:103590003FEF981748F4E92FF0E0EF55FB4F2081FB
:1035A00030E09F5F9093A004C9010895E091A004CA
:1035B00080919F04E81730F4F0E0EF55FB4F8081D5
:1035C00090E008958FEF9FEF08950895CF93DF93D4
:1035D0001F92CDB7DEB7698320917B042223F9F0D7
:1035E00020917C04203258F021E030E0FC0133834C
:1035F000228390E080E00F90DF91CF910895809139
:103600007D04E82FF0E0E258FB4F998190838F5FB3
:1036100080937D0480937C0481E090E0ECCF61E0B6
:10362000CE0101960E947D1CF7CFCF92DF92EF92E0
:10363000FF920F931F93CF93DF937C01CB018A01FD
:1036400020917B04222389F0EB016B01C40ED51E6F
:10365000CC15DD0569F06991D701ED91FC910190E0
:10366000F081E02DC7010995F3CF642F0E947D1CE6
:10367000C801DF91CF911F910F91FF90EF90DF90E4
:10368000CF90089581E080937B0460939E04109214
:103690007D0410927C0408950C94421B0F93062F16
:1036A00021E040917C046EE774E080919E040E94CA
:1036B000261C10927D0410927C0410927B040F91C2
:1036C00008954F925F926F927F92AF92BF92CF9286
:1036D000EF92FF920F931F93CF93DF935C01F62E2F
:1036E000D42F28013901EE2019F10E94421BCE2D62
:1036F000C43008F0C3E0C150B8F028E0C29FC00158
:103700001124A301920104C056954795379527953A
:103710008A95D2F7B901D501ED91FC910190F08124
:10372000E02DC5010995E7CF60E0C5010E944E1B61
:103730004D2FD13208F040E22C2D61EA74E08F2D3C
:103740000E94DE1B1092A00480939F04DF91CF9112
:103750001F910F91FF90EF90CF90BF90AF907F900F
:103760006F905F904F900895CF92EF920F931F93B9
:10377000C22EE12C00E010E098010E94611B1F9115
:103780000F91EF90CF90089521E00C94B41B21E0AD
:103790000C94B41B61E00C944E1BEFE6F4E0138232
:1037A000128288EE93E0A0E0B0E084839583A68344
:1037B000B78388EC91E0918380830895413208F0CB
:1037C00043C090912E059111FCCF91E090932E056E
:1037D00020932C052FEF2093C10410920605240F8F
:1037E0002093050590932D0590912D05880F892B29
:1037F00080932D0580912B05813009F510922B05C2
:1038000080912D058093BB008091BC0083FDF8CF93
:1038100085EC8093BC0080912E058130E1F380918E
:103820000605841710F440910605A7E0B5E0962F31
:10383000FB018E2F891B841720F0842F089585EEBD
:10384000E8CF8D918193F5CF40E0F7CF0F934132D0
:1038500008F04BC090912E059111FCCF92E090930F
:103860002E0500932C059FEF9093C104109206053E
:1038700040930505362FA7E0B5E0FB019E2F931B73
:10388000941770F110922D0590912D05880F892BBA
:1038900080932D0580912B05813029F510922B0501
:1038A00080912D058093BB008091BC0083FDF8CFF3
:1038B00085EC8093BC00222321F080912E0582307C
:1038C000D1F38091C1048F3F91F08091C104803287
:1038D00081F08091C104803371F084E00F910895EC
:1038E00091919D93CBCF85EEE4CF81E0F7CF80E03F
:1038F000F5CF82E0F3CF83E0F1CF2091E304260FF0
:103900003327331F21323105ECF420912E05FC01C1
:1039100090E080E0243069F082E00895A091E30413
:103920002191AC014B515B4FA40FB52FB11D2C93CE
:103930000196861798F38091E304680F6093E3047F
:1039400080E0089581E0089585ED8093BC0080912A
:10395000BC0084FDFCCF10922E05089585EC809369
:10396000BC0010922E0508951F920F920FB60F9271
:1039700011240BB60F922F933F934F935F936F9346
:103980007F938F939F93AF93BF93EF93FF93809118
:10399000B900887F803609F44EC008F041C08832F3
:1039A00009F4AAC028F5803109F49EC0C8F4882320
:1039B00009F4FBC0883009F497C0FF91EF91BF91E3
:1039C000AF919F918F917F916F915F914F913F91B7
:1039D0002F910F900BBE0F900FBE0F901F90189558
:1039E000883109F489C0803241F78093C10415C041
:1039F000803409F49EC048F48033B9F38833E9F683
:103A00008093C1040E94AE1CD8CF803509F485C0D4
:103A1000883509F496C0883481F60E94A41CCDCF65
:103A2000883909F48CC038F5883729F050F4883685
:103A300011F0803711F683E080932E051092C204B6
:103A400057C0883809F47BC0803919F0803809F0F4
:103A5000B4CF8091C204803208F071C0E091C204FA
:103A600081E08E0F8093C2048091BB00F0E0ED53A3
:103A7000FB4F80833DC0803B39F0E0F4803A09F48D
:103A800079C0883A09F099CF84E080932E0510928E
:103A9000E4041092E304E0912905F0912A050995C8
:103AA0008091E30481110FC081E08093E3041092C0
:103AB000E50409C0803C09F476C0883C09F473C071
:103AC000883B09F07ACFE091E40481E08E0F809387
:103AD000E404F0E0EB51FB4F80818093BB009091B8
:103AE000E4048091E30429C080912D058093BB00FC
:103AF00085EC8093BC0061CF90910605809105050F
:103B0000981758F5E091060581E08E0F8093060521
:103B1000F0E0E95FFA4F8081E9CFE091060581E0AE
:103B20008E0F809306058091BB00F0E0E95FFA4FAD
:103B3000808390910605809105059817C8F285E865
:103B4000D8CFE091060581E08E0F80930605809125
:103B5000BB00F0E0E95FFA4F808380912C05811172
:103B60005CCF81E080932B0584EA8093BC001092A7
:103B70002E0523CF0E94AE1C8091C204803230F407
:103B8000E091C204F0E0ED53FB4F10826091C2045B
:103B900070E0E0912705F091280583EC94E0099509
:103BA0001092C2040ACF85ECE0CF1092C10435CF49
:103BB000CF93CFB7F89480913205811127C0E0EE02
:103BC000F0E08491E0ECF0E09491E82FF0E0EE0F6B
:103BD000FF1FEA5FFE4FA591B491EC91E92321F418
:103BE00061E084E00E94CD2361E084E00E949123A3
:103BF0008CB580618CBD8CB580648CBD61E087E044
:103C00000E94912361E085E00E949123809132051A
:103C10008F5F80933205CFBFCF910895FC01918DC6
:103C2000228D892F90E0805C9F4F821B91098F73BA
:103C300099270895FC01918D828D981731F0828D1E
:103C4000E80FF11D858D90E008958FEF9FEF0895A7
:103C5000FC01918D828D981761F0A28DAE0FBF2F60
:103C6000B11D5D968C91928D9F5F9F73928F90E0B6
:103C700008958FEF9FEF0895FC01538D448D252FFC
:103C800030E0842F90E0821B930B541710F0CF96F6
:103C900008950197089586EA9FE1892B49F080E015
:103CA00090E0892B29F00E94A61F81110E9400003C
:103CB00080E090E0892B49F080E090E0892B29F0AA
:103CC0000E94000081110C9400000895FC01A48D55
:103CD000A80FB92FB11DA35ABF4F2C91848D90E02E
:103CE00001968F739927848FA689B7892C93A08911
:103CF000B1898C9180648C93938D848D981306C0C8
:103D00000288F389E02D80818F7D80830895CF9391
:103D1000DF93EC01888D8823B9F0AA89BB89E889F3
:103D2000F9898C9185FD03C0808186FD0DC00FB699
:103D300007FCF7CF8C9185FFF2CF808185FFEDCF17
:103D4000CE010E94661EE9CFDF91CF910895EF92D8
:103D5000FF920F931F93CF93DF93EC0181E0888F45
:103D60009B8D8C8D981316C0E889F989808185FF19
:103D700011C0EE89FF896083E889F98980818064B8
:103D8000808381E090E0DF91CF911F910F91FF90B0
:103D9000EF900895F62E0B8D10E00F5F1F4F0F73FD
:103DA0001127E02E8C8D8E110CC00FB607FCFACFB8
:103DB000E889F989808185FFF5CFCE010E94661ED2
:103DC000F1CFEB8DEC0FFD2FF11DE35AFF4FF08289
:103DD0000B8FEA89FB8980818062D2CFCF92DF92FC
:103DE000EF92FF921F93CF93DF93EC016A017B0167
:103DF000122FE889F98982E08083C11481EED80608
:103E0000E104F104A1F060E079E08DE390E0A70126
:103E100096010E94FC232150310941095109569510
:103E2000479537952795211580E1380798F0E8895F
:103E3000F989108260E874E88EE190E0A7019601AC
:103E40000E94FC232150310941095109569547959B
:103E500037952795EC85FD853083EE85FF8520839A
:103E6000188EEC89FD891083EA89FB898081886935
:103E70008083EA89FB8980818F7D8083DF91CF9168
:103E80001F91FF90EF90DF90CF9008951F920F92B7
:103E90000FB60F9211240BB60F922F938F939F930F
:103EA000EF93FF93E0914305F09144058081E09109
:103EB0004905F0914A0582FD1DC0908180914C0515
:103EC0008F5F8F7320914D05821741F0E0914C0573
:103ED000F0E0ED5CFA4F958F80934C05FF91EF91E8
:103EE0009F918F912F910F900BBE0F900FBE0F904F
:103EF0001F9018958081F2CF1F920F920FB60F92EC
:103F000011240BB60F922F933F934F935F936F93B0
:103F10007F938F939F93AF93BF93EF93FF9383E32D
:103F200095E00E94661EFF91EF91BF91AF919F9126
:103F30008F917F916F915F914F913F912F910F9052
:103F40000BBE0F900FBE0F901F90189583E395E066
:103F50000E940E1E21E0892B09F420E0822F089593
:103F6000E3E3F5E01382128288EE93E0A0E0B0E094
:103F700084839583A683B7838AED91E091838083C0
:103F800085EC90E09587848784EC90E0978786871E
:103F900080EC90E0918B808B81EC90E0938B828B16
:103FA00082EC90E0958B848B86EC90E0978B868BEF
:103FB000118E128E138E148E0895AF92BF92CF92EF
:103FC000DF92EF92FF920F931F93CF93DF936C01D9
:103FD0007B018B01040F151FEB015E01AE18BF08BA
:103FE000C017D10759F06991D601ED91FC9101906C
:103FF000F081E02DC6010995892B79F7C501DF9184
:10400000CF911F910F91FF90EF90DF90CF90BF90D5
:10401000AF900895FB0101900020E9F73197AF01BF
:10402000461B570BDC01ED91FC910280F381E02DE2
:104030000994DB0114964D915C9115976D917C91DB
:10404000DC01ED91FC910280F381E02D099468E49C
:1040500071E00C940A200F931F93CF93DF93EC0130
:104060000E9419208C01CE010E942720800F911FF1
:10407000DF91CF911F910F9108950F931F93CF93CD
:10408000DF938C01D0E0C0E06115710519F00E944A
:104090000A20EC01C8010E9427208C0F9D1FDF9190
:1040A000CF911F910F910895FC01808191810C9413
:1040B000DD24CF93DF93EC0188819981009711F083
:1040C0000E94DD24198218821D821C821B821A82A2
:1040D000DF91CF9108950F931F93CF93DF93EC015E
:1040E0008B016F5F7F4F888199810E9466250097C1
:1040F00051F0998388831B830A8381E0DF91CF91FC
:104100001F910F91089580E0F9CFCF93DF93EC01D9
:1041100088819981892B49F08A819B81861797072D
:1041200020F081E0DF91CF910895CE010E946B20B5
:104130008823C1F38C819D81892B99F7E881F981CE
:104140001082EFCFEF92FF920F931F93CF93DF93E5
:10415000EC017B018A01BA010E94852081110BC00C
:10416000CE010E945920CE01DF91CF911F910F9176
:10417000FF90EF9008951D830C83B701888199818A
:104180000E946826F0CFFC011182108213821282F5
:10419000158214826115710551F0FB010190002018
:1041A000E9F73197AF01461B570B0C94A2200895F5
:1041B000FB0101900020E9F73197AF01461B570B37
:1041C0000C94A2200F931F93CF93DF93CDB7DEB74C
:1041D00029970FB6F894DEBF0FBECDBF8C01862F96
:1041E000F80111821082138212821582148250E02B
:1041F000BE016F5F7F4F90E00E94C126BE016F5FDE
:104200007F4FC8010E94D82029960FB6F894DEBFD0
:104210000FBECDBFDF91CF911F910F9108950F93E6
:104220001F93CF93DF93CDB7DEB762970FB6F894A5
:10423000DEBF0FBECDBF8C01CB01F8011182108211
:10424000138212821582148250E0BE016F5F7F4F8D
:104250000E947E26BE016F5F7F4FC8010E94D8205A
:1042600062960FB6F894DEBF0FBECDBFDF91CF913F
:104270001F910F9108950F931F93CF93DF93CDB7A5
:10428000DEB761970FB6F894DEBF0FBECDBF8C01CD
:10429000CB01F801118210821382128215821482DE
:1042A00050E0BE016F5F7F4F0E94C126BE016F5F6D
:1042B0007F4FC8010E94D82061960FB6F894DEBFE8
:1042C0000FBECDBFDF91CF911F910F9108950F9336
:1042D0001F93CF93DF93CDB7DEB7A1970FB6F894B6
:1042E000DEBF0FBECDBF8C01CB01BA01F801118238
:1042F0001082138212821582148230E0AE014F5F69
:104300005F4F0E949426BE016F5F7F4FC8010E94DD
:10431000D820A1960FB6F894DEBF0FBECDBFDF91B7
:10432000CF911F910F910895CF93DF93EC01FB0183
:104330008617970749F0608171816115710541F019
:10434000448155810E94A220CE01DF91CF91089532
:104350000E945920F9CFFC0111821082138212822F
:10436000158214820C949421EF92FF920F931F9365
:10437000CF93DF936115710541F480E0DF91CF9118
:104380001F910F91FF90EF90089541155105B1F0E5
:104390007B01EC010C811D81040F151FB8010E94E7
:1043A0008520882351F3288139818C819D81B70133
:1043B000820F931F0E9468261D830C8381E0DECF4D
:1043C000FB0144815581608171810C94B421611598
:1043D000710551F0FB0101900020E9F73197AF0121
:1043E000461B570B0C94B42180E00895CF93DF93C4
:1043F000EC01FB0144815581608171810E94B421EF
:10440000811103C0CE010E945920CE01DF91CF91CE
:104410000895CF93DF93EC016115710539F4CE0156
:104420000E945920CE01DF91CF910895FB010190A8
:104430000020E9F73197AF01461B570B0E94B421CA
:10444000882369F3EFCFCF93DF93DC011496ED91CE
:10445000FC916E177F0728F54115510511F19F0159
:10446000261B370B4217530708F49A01DB01EC01B6
:1044700088819981E21BF30BFD83EC83AF01461B1E
:10448000570B260F371FBC01620F731F8A0F9B1F2C
:104490000E946F26E881F9818C819D81E80FF91FC8
:1044A0001082DF91CF9108954FEF5FEF0C9423229C
:1044B00008950E9427230E9458220E947A04CBE488
:1044C000DEE10E9496012097E1F30E944B1EF9CF96
:1044D0001F920F920FB60F9211242F933F938F9339
:1044E0009F93AF93BF938091D5059091D605A091EE
:1044F000D705B091D8053091D40523E0230F2D378F
:1045000068F126E8230F0296A11DB11D2093D40562
:104510008093D5059093D605A093D705B093D80581
:104520008091D0059091D105A091D205B091D3058D
:104530000196A11DB11D8093D0059093D105A09344
:10454000D205B093D305BF91AF919F918F913F91C9
:104550002F910F900FBE0F901F9018950196A11DDF
:10456000B11DD4CF2FB7F8946091D5057091D605C1
:104570008091D7059091D8052FBF08953FB7F89443
:104580008091D0059091D105A091D205B091D3052D
:1045900026B5A89B05C02F3F19F00196A11DB11D9E
:1045A0003FBFBA2FA92F982F8827BC01CD01620FDA
:1045B000711D811D911D42E0660F771F881F991F95
:1045C0004A95D1F708958F929F92AF92BF92CF9262
:1045D000DF92EF92FF926B017C010E94BE224B01A1
:1045E0005C01C114D104E104F104E9F00E94FB2351
:1045F0000E94BE22681979098A099B09683E7340A6
:104600008105910570F321E0C21AD108E108F10893
:1046100088EE880E83E0981EA11CB11CC114D10441
:10462000E104F10429F7FF90EF90DF90CF90BF9065
:10463000AF909F908F9008958230910538F0880F49
:10464000991F880F991F05970197F1F7089578949E
:1046500084B5836084BD85B5836085BDEEE6F0E0FA
:10466000808181608083E1E8F0E082E08083808166
:1046700081608083E0E8F0E0808181608083E1EB0D
:10468000F0E0808184608083E0EBF0E080818160F5
:104690008083E1E9F0E0808183608083E0E9F0E0FD
:1046A00080818160808387E880937A001092C100C6
:1046B000089582508A3088F5E82FF0E0EE59FC4DDD
:1046C0000C941E248A238E236C2372238D238D2326
:1046D00076237C2380238623809180008F778093AC
:1046E00080000895809180008F7DF9CF8091B00087
:1046F0008F778093B00008958091B0008F7DF9CFBF
:10470000809190008F778093900008958091900021
:104710008F7DF9CF84B58F7784BD089584B58F7D63
:10472000FBCFCF93DF9390E0FC01E454FF4F249143
:1047300084529F4FFC0184918823C9F090E0880F38
:10474000991FFC01EA5FFE4FA591B491FC01E45072
:10475000FF4FC591D49161110DC09FB7F8948C9112
:10476000209582238C938881282328839FBFDF9103
:10477000CF910895623051F49FB7F8943C91822F05
:10478000809583238C93E8812E2BEFCF8FB7F894FD
:10479000EC912E2B2C938FBFEACF1F93CF93DF93F7
:1047A000282F30E0F901E456FF4F8491F901E454D9
:1047B000FF4FD491F901E452FF4FC491CC23A9F0EB
:1047C000162F81110E945923EC2FF0E0EE0FFF1FEE
:1047D000E450FF4FA591B4918FB7F894EC9111116B
:1047E00008C0D095DE23DC938FBFDF91CF911F915E
:1047F0000895DE2BF8CF0895A1E21A2EAA1BBB1B49
:10480000FD010DC0AA1FBB1FEE1FFF1FA217B3079C
:10481000E407F50720F0A21BB30BE40BF50B661FB2
:10482000771F881F991F1A9469F760957095809576
:1048300090959B01AC01BD01CF010895EE0FFF1FC4
:104840000024001C0BBE0790F691E02D09940E94F5
:104850003224A59F900DB49F900DA49F800D911DB3
:1048600011240895A29FB001B39FC001A39F700DB2
:10487000811D1124911DB29F700D811D1124911D68
:1048800008950F931F93CF93DF938230910510F417
:1048900082E090E0E091DB05F091DC0530E020E083
:1048A000B0E0A0E0309799F42115310509F44AC031
:1048B000281B390B24303105D8F58A819B8161157D
:1048C000710589F1FB0193838283FE0111C0408150
:1048D00051810281138148175907E0F048175907A1
:1048E00099F4109761F012960C93129713961C93FB
:1048F0003296CF01DF91CF911F910F9108950093D0
:10490000DB051093DC05F4CF2115310551F042177A
:10491000530738F0A901DB019A01BD01DF01F8015D
:10492000C1CFEF01F9CF9093DC058093DB05CDCFAC
:10493000FE01E20FF31F81939193225031093983D5
:104940002883D7CF2091D9053091DA05232B41F464
:1049500020910201309103013093DA052093D905AB
:1049600020910001309101012115310541F42DB74D
:104970003EB74091040150910501241B350BE09195
:10498000D905F091DA05E217F307A0F42E1B3F0BCF
:104990002817390778F0AC014E5F5F4F24173507B1
:1049A00048F04E0F5F1F5093DA054093D90581936D
:1049B00091939FCFF0E0E0E09CCFCF93DF930097FF
:1049C000E9F0FC01329713821282A091DB05B091CD
:1049D000DC05ED0130E020E01097A1F42081318169
:1049E000820F931F2091D9053091DA0528173907D6
:1049F00009F061C0F093DA05E093D905DF91CF911A
:104A00000895EA01CE17DF07E8F54A815B819E0130
:104A100041155105B1F7E901FB83EA8349915991A9
:104A2000C40FD51FEC17FD0761F4808191810296B8
:104A3000840F951FE90199838883828193819B83E9
:104A40008A83F0E0E0E012968D919C911397009795
:104A5000B9F52D913C911197CD010296820F931FCC
:104A60002091D9053091DA052817390739F63097A2
:104A700051F51092DC051092DB05B093DA05A09396
:104A8000D905BCCFD383C28340815181840F951F48
:104A9000C817D90761F44E5F5F4F88819981480F2D
:104AA000591F518340838A819B819383828321157F
:104AB000310509F0B0CFF093DC05E093DB059ECF24
:104AC000FD01DC01C0CF13821282D7CF4F925F92DB
:104AD0006F927F928F929F92AF92BF92CF92DF920E
:104AE000EF92FF920F931F93CF93DF938C01009768
:104AF00099F4CB01DF91CF911F910F91FF90EF902F
:104B0000DF90CF90BF90AF909F908F907F906F90ED
:104B10005F904F900C944124FC01E60FF71F9C011D
:104B200022503109E217F30708F4AEC0D901CD9144
:104B3000DC911197C617D70720F1C530D10578F061
:104B4000CE0104978617970750F0C61BD70B229704
:104B5000C193D1936D937C93CF010E94DD24C80152
:104B6000DF91CF911F910F91FF90EF90DF90CF9049
:104B7000BF90AF909F908F907F906F905F904F907D
:104B800008955B01AC1ABD0A4C018C0E9D1EA091CC
:104B9000DB05B091DC05512C412CF12CE12C109758
:104BA00031F58091D9059091DA058815990509F0BC
:104BB0005CC04616570608F058C0809100019091DD
:104BC0000101009741F48DB79EB7409104015091C7
:104BD0000501841B950BE817F90708F055C0F09301
:104BE000DA05E093D905F90171836083B8CF8D911F
:104BF0009C91119712966C90129713967C90139734
:104C0000A815B90559F56C0142E0C40ED11CCA14AF
:104C1000DB0420F1AC014A195B09DA011296159701
:104C200080F06282738251834083D9016D937C93BB
:104C3000E114F10471F0D7011396FC93EE931297EF
:104C40008ECF22968C0F9D1FF90191838083F301F3
:104C5000EFCFF093DC05E093DB0581CF48165906D2
:104C600008F42C017D01D3019ACFCB010E9441248D
:104C70007C01009749F0AE01B8010E945426C8019A
:104C80000E94DD2487016BCF10E000E068CFFB01BC
:104C9000DC0104C08D910190801921F441505040F5
:104CA000C8F7881B990B0895FB01DC0102C0019035
:104CB0000D9241505040D8F70895FC01819186171C
:104CC00021F08823D9F7992708953197CF010895C6
:104CD000FB01DC0101900D920020E1F70895FB013A
:104CE000DC014150504048F001900D920020C9F77E
:104CF00001C01D9241505040E0F7089545325105E2
:104D000020F4423010F00C948926FB011082CB0174
:104D10000895BB274A3031F4992322F4BDE29095DF
:104D200081959F4F0C94CD262532310520F42230F9
:104D300010F00C949F26FA011082CA010895BB2737
:104D4000FA01A62F6217710581059105330B30FB1F
:104D500066F0AA27660F771F881F991FAA1FA21740
:104D600010F0A21B63953850A9F7A05DAA3308F094
:104D7000A95DA19336F7B111B1931082CA010C94C9
:104D8000E6264532510520F4423010F00C94CC2632
:104D9000FB011082CB010895BB27FB015527AA27F1
:104DA000880F991FAA1FA41710F0A41B83955051B8
:104DB000B9F7A05DAA3308F0A95DA193009779F730
:104DC000B111B1931192CB010C94E626DC01FC01E8
:104DD000672F71917723E1F7329704C07C916D932F
:104DE00070836291AE17BF07C8F3089510E0CEE854
:104DF000D0E004C0FE010E941E242196CF38D107C6
:104E0000C9F7F894FFCF0000DD05800003FF00FF25
:104E1000FFFFFF5350414345444F53303300366545
:104E200030663231616638393564633630663265F2
:104E300037343262396264643563326163336138B6
:104E4000313439386531002454494D452C000D0A60
:104E50000024484953542C00234361726420666146
:104E6000696C65642C206F72206E6F74207072659F
:104E700073656E7400236572726F72206F70656E59
:104E8000696E6720646174616C6F672E747874005A
:104E9000234376616B2E2E2E0023486D6D6D2E2ED2
:104EA0002E0024444F532C00300000000000CE0799
:104EB000E407CB070108B40820082A082F000000E7
:104EC00000000216DD1FCB07E10E00000000E61A0D
:104ED000151BCB07E51ABC1AC31AD61A000000002E
:0E4EE000A71EDD1F3C1E871E0E1E281E1A1E5A
:020000040001F9
:10FC000002C0F3C03BC1112484B790E89093610017
:10FC100010926100882369F0982F9A70923049F011
:10FC200081FF02C097EF94BF282E80E001D10C9491
:10FC3000000085E08093810082E08093C00088E12D
:10FC40008093C10080E18093C40086E08093C2006D
:10FC50008EE0EED0209A84E020E33CEF91E03093F8
:10FC600085002093840096BBB09BFECF189AA89580
:10FC70004091C00047FD02C0815089F7CDD081344A
:10FC800079F4CAD0C82FDAD0C23811F480E004C0A9
:10FC900088E0C13809F083E0B8D080E1B6D0EECF7B
:10FCA000823419F484E1D2D0F8CF853411F485E0A0
:10FCB000FACF853581F4B0D0E82EAED0F82E87FF8C
:10FCC00007C08BB781608BBFEE0CFF1CB7D0E5CFB0
:10FCD0008BB78E7FF8CF863579F49ED08D3451F472
:10FCE0009BD0CBB799D0C170880F8C2B8BBF81E094
:10FCF000ADD0CCCF83E0FCCF843609F045C08CD0AA
:10FD0000C82FD0E0DC2FCC2787D0C82B85D0D82EA9
:10FD10005E01B39400E011E04801EFEF8E1A9E0AF5
:10FD20007BD0F801808384018A149B04A9F786D0D4
:10FD3000F5E410E000E0DF1609F150E040E063E098
:10FD4000C70153D08701C12CDD24D394F601419122
:10FD500051916F0161E0C80148D00E5F1F4F22979B
:10FD6000A9F750E040E065E0C7013FD096CF608141
:10FD7000C8018E0D9F1D02D10F5F1F4FF801F39533
:10FD8000C017D107A1F789CF843701F545D0C82F17
:10FD9000D0E0DC2FCC2740D0C82B3ED0D82E4ED080
:10FDA0008701F5E4DF120BC0CE0DDF1DC801DED0E8
:10FDB0002CD00F5F1F4FC017D107C1F76ECFF801CE
:10FDC00087918F0122D02197D1F767CF853739F4FA
:10FDD00035D08EE11AD087E918D085E05DCF813526
:10FDE00009F074CF88E024D071CFFC010A0167BF0D
:10FDF000E895112407B600FCFDCF667029F0452B6D
:10FE000019F481E187BFE89508959091C00095FFAE
:10FE1000FCCF8093C60008958091C00087FFFCCF7F
:10FE20008091C00084FD01C0A8958091C60008950E
:10FE3000E0E6F0E098E1908380830895EDDF803282
:10FE400019F088E0F5DFFFCF84E1DFCFCF93C82F33
:10FE5000E3DFC150E9F7CF91F1CFCF92DF92EF927C
:10FE6000FF92DC01CB01642F6D01EE24FF24CBBE99
:10FE7000A901FF90EF90DF90CF90B7CF2F923F92E4
:10FE80004F925F926F927F928F929F92AF92BF92AA
:10FE9000CF92DF92EF92FF920F931F93CF93DF9356
:10FEA00000D01F92CDB7DEB71801E9826B017C014B
:10FEB00010E000E029013A014C185D086E087F0847
:10FEC00046015701840C951CA61CB71C021513058E
:10FED00031F489818823A1F188E0AADFFFCF30E0E7
:10FEE00020E043E0C701B601B8DF80E890E09B83E3
:10FEF0008A83ABBEF40127913691C501B401641920
:10FF000075098609970941E0A8DF8A819B810197DD
:10FF10009B838A8392E0890E911CA11CB11C8A816B
:10FF20009B81892B31F730E020E045E0C701B60125
:10FF300094DF9FEFD91AE90AF90A0F5F1F4FC0CF6C
:10FF40000F900F900F90DF91CF911F910F91FF9025
:10FF5000EF90DF90CF90BF90AF909F908F907F9069
:10FF60006F905F904F903F902F900895F999FECF3A
:10FF700092BD81BDF89A992780B50895262FF999E9
:10FF8000FECF1FBA92BD81BD20BD0FB6F894FA9A7C
:08FF9000F99A0FBE01960895D5
:02FFFE000008F9
:00000001FF
